:020000040800F2
:100000001809002065010008450500082D050008B5
:1000100041050008730200084D0A000800000000B6
:1000200000000000000000000000000001070008C0
:1000300077020008000000007105000803070008AF
:100040007F0100087F0100087F0100087F01000890
:100050007F010008790200087F010008A90200085A
:100060007F0100087F0100087F0100087F01000870
:100070007F0100087F010008150900081909000820
:10008000310900087F010008000000007F0100081E
:10009000170900087F0100087F0100087F010008A0
:1000A000390500087F0100087F010008BD0900082C
:1000B0007F010008000000007F0100080000000030
:1000C0007F0100080000000031050008000000006A
:1000D0000000000000000000000000000000000020
:1000E00000000000000000007F0100080000000088
:1000F0000000000000000000000000000000000000
:100100007F01000800000000000000000000000067
:1001100000000000000000000000000000000000DF
:1001200000000000000000000000000000000000CF
:1001300000000000000000000000000000000000BF
:100140000000000000000000000000007F01000827
:10015000DFF80CD000F05CF80048004735180008C4
:10016000180900200648804706480047FEE7FEE7DA
:10017000FEE7FEE7FEE7FEE7FEE7FEE7FEE7FEE757
:100180000D07000851010008D2B201E000F8012B70
:10019000491EFBD270470022F6E710B513460A4607
:1001A00004461946FFF7F0FF204610BD2DE9F05F29
:1001B0000546002092469B468846064681464024D6
:1001C0001BE0284641464746224600F042F8534687
:1001D0005A46C01A914110D311461846224600F0E3
:1001E00029F82D1A67EB01084F462246012000210D
:1001F00000F020F817EB00094E41201EA4F1010485
:10020000DFDC484631462A464346BDE8F09F000001
:10021000064C074D06E0E06840F0010394E8070053
:1002200098471034AC42F6D3FFF796FFF021000850
:1002300010220008202A04DB203A00FA02F10020F4
:1002400070479140C2F1200320FA03F31943904014
:100250007047202A04DB203A21FA02F0002170477F
:1002600021FA02F3D040C2F120029140084319461E
:10027000704700BFFEE7704710B5012000F0A8FEF0
:1002800070B1002000F0A0FF01214FF0904000F07D
:10029000DBFF012802D100F03BFE01E000F068FE28
:1002A000012000F08FFE10BD10B5802000F090FE00
:1002B000B8B184480068012810D08021824800F03D
:1002C000C3FF30B9012081490860002000F020FE02
:1002D00004E000207D49086000F04AFE802000F024
:1002E00071FE4FF4807000F073FEC0B17748006873
:1002F000012810D04FF48071734800F0A5FF28B991
:1003000001207049086000F003FE04E000206D4900
:10031000086000F02DFE4FF4807000F053FE2020A6
:1003200000F056FEB8B16A480068012810D02021BC
:10033000654800F089FF30B9012066490860002057
:1003400000F0F6FD04E000206249086000F01AFEAB
:10035000202000F037FE402000F03AFEB0B15D48AA
:10036000006801280FD04021574800F06DFF28B9E0
:1003700001205749086000F0DBFD04E000205449EB
:10038000086000F0FFFD402000F01CFE4FF40070FC
:1003900000F01EFED8B150480068012813D04FF479
:1003A0000071494800F050FF30B901204B49086006
:1003B000002000F0CDFD06E000204849086000F074
:1003C00003FF00F0E9FD4FF4007000F0FBFD4FF477
:1003D000806000F0FDFDC0B140480068012810D0E9
:1003E0004FF48061384800F02FFF28B901203A49C6
:1003F000086000F0ADFD04E000203749086000F01F
:10040000CBFD4FF4806000F0DDFD4FF4006000F0A4
:10041000DFFD88B14FF400614FF0904000F014FF11
:1004200018B901202E49086002E000202C4908601C
:100430004FF4006000F0C6FD4FF4805000F0C8FD9E
:1004400088B14FF480514FF0904000F0FDFE18B994
:1004500001202449086002E00020224908604FF48E
:10046000805000F0AFFD4FF4004000F0B1FD88B1C6
:100470004FF400414FF0904000F0E6FE18B9012023
:100480001949086002E00020174908604FF4004055
:1004900000F098FD4FF4005000F09AFD80B14FF449
:1004A0000051124800F0D0FE18B901201049086030
:1004B00002E000200E4908604FF4005000F082FD79
:1004C00010BD000068000020000400486400002007
:1004D000700000206C000020800000207C000020C4
:1004E00074000020780000208400002000080048EC
:1004F0008800002070B504460025204600F0A4FDC9
:100500000546284670BD10B500F0ECFD10BD70B575
:1005100004460D46002600F0E5FD2946204600F081
:10052000F3FD064600F086FD304670BD00BFFEE7D5
:1005300010B500F0F7FE10BD10B500F053FF10BD70
:1005400000BFFEE77047000010B5002807DA0A0771
:10055000140E054A00F00F031B1FD45403E00A07D2
:10056000130E024A135410BD18ED00E000E400E041
:1005700070470000FEB54A4D00240026002002907E
:10058000019000900127474E00BF2846009009E0E7
:100590000098FFF7AFFF08B100BFFEE7009800F535
:1005A00080600090404900988842F1D33FA000F05D
:1005B0004FFA3B4801683FA000F04AFA6DE03BA0CB
:1005C00000F046FA364801683AA000F041FA0020EF
:1005D0003A4908704FF48061394800F0B7FF0221B2
:1005E000304801F0FDF800BF344800780028FBD007
:1005F00000203249087004E02A48017831A000F058
:1006000027FA28480078042803D0264800780128D3
:10061000F2D104E0234841782DA000F019FA2148D6
:10062000407818B11F4840785C28F3D11D48007805
:1006300004021C4840780443214628A000F008FA30
:10064000B4F5806F00D200274FF480611C4800F0A1
:100650007DFF2146134801F0C3F800BF174800781A
:100660000028FBD000201549087002940DE0029A82
:10067000B21A1159029AAA1A1019FFF748FF08B1C5
:1006800000BFFEE70298001F029002980028EED1FA
:10069000214615A000F0DCF92544012F8FD0FEBDC6
:1006A000002800081001002000D400083232320A6D
:1006B00000000000307825780A0000009400002037
:1006C00000580040363636363A25640A00000000ED
:1006D00036363636313A25640A00000073697A6589
:1006E0003A25640A000000007472616E736D6974CB
:1006F0002073756363657373203A25640A000000F4
:10070000704710B500F052FC10BD000008B57748E6
:10071000C06900F00600062871D07448C069C0F3B3
:10072000403000286BD0724870494860714848607A
:100730006F4888606F4888600846006940F0200074
:1007400008610846006940F04000086100BF674842
:10075000C06800F001000028F9D16448006920F069
:100760002000624908610846006940F010000861F5
:100770000846C06900F0060018B9A5205E49088047
:1007800008E05A48C06900F00600022802D1BB20E8
:10079000594908805548C069000A00F0DF005649F1
:1007A000891C08805148C069C0F30740891C088033
:1007B0004E48C069000E891C08804C48006AC0B2CF
:1007C000891C08804948006AC0F30720891C0880FA
:1007D00000BF4648C06800F001000028F9D1434836
:1007E000006920F01000414908610846006920F4C2
:1007F000007008610846006940F0800008613F48C9
:10080000006840F470003D4908603D48006840F0D1
:1008100001003B49086000BF3948006800F0020051
:100820000028F9D000BF3648406840F080003449C5
:1008300048600020009002E00098401C0090009862
:100840005028F9D32E48406840F090002C49486069
:100850000020009002E00098401C00900098502872
:10086000F9D300BF2648406820F0030024494860BF
:100870000846006823490840214908600846406846
:10088000214908401E494860084640681F49084001
:100890001B4948600846C06A1D4908401849C8629B
:1008A0000846006B40F20311884315490863084667
:1008B000006B20F4803008630846006B20F0004095
:1008C00008630846406B20F0010048630C48C030C4
:1008D000006820F48030C1F8C0000020886008491A
:1008E000CC31086001F0BAFA08BD000000200240D7
:1008F00023016745AB89EFCD00F8FF1F88ED00E0CD
:1009000000100240FFFFF2FE0C00FF08FFFFC2775D
:10091000F0FFFF3F7047704710B50221480701F014
:1009200006FB012803D10221800701F0FDFA10BD6A
:1009300010B502211A4801F0FAFA01282FD102213C
:10094000174801F0F1FA022000F002FA1548006899
:10095000154908601548007801280ED1084600683E
:1009600013490968884202DB00F002FB17E01148D6
:100970000068401C0F49086011E00C48007802280C
:100980000DD1094800680C490968884202DC00F072
:10099000EFFA04E007480068401E0649086010BDF1
:1009A000000400404C2401402C00002000010020E5
:1009B000C021000820000020C421000810B51A49F9
:1009C0001A4801F0A6FBA0B1184801F057FBC1B2CC
:1009D00017480488601C164A1080164801551046B6
:1009E000008815490978884203D105210F4801F094
:1009F00083FB12490D4801F08CFB98B11048047834
:100A0000601C0F4A10700F48015D084801F03BFB65
:100A10000B4800780C490978884203D10721034824
:100A200001F06AFB10BD0000050005070038014019
:100A30000E000020070000200D000020070007071F
:100A400006000020000000200500002000BFFEE797
:100A50000FB4054B10B503A9044A029800F018F82A
:100A600010BC5DF814FB0000491100089C00002038
:100A700002E008C8121F08C1002AFAD17047704767
:100A8000002001E001C1121F002AFBD170470000C5
:100A90002DE9FF4F8DB09B460F460446002606E029
:100AA00025280BD05A460F999047641C761C207855
:100AB0000028F5D111B03046BDE8F08F0025A846DA
:100AC0000122984900E0054314F8013F203B02FA57
:100AD00003F00842F7D120782E2817D114F8010F1F
:100AE00045F004052A280ED06FF02F022078A0F1DF
:100AF000300109290AD808EB880102EB410100EB1B
:100B00000108641CF2E757F8048B641C20786C28F9
:100B10000DD004DC4C2812D06A2811D104E07428CE
:100B20000DD07A280CD10AE045F4001507E0617871
:100B300045F48015814202D1641C05F58015641CC2
:100B40002278692A45D008DC002AB3D0582A69D017
:100B5000632A10D0642A08D13BE0702A67D0732A38
:100B600013D0752A5CD0782A5CD010465A460F996B
:100B70009047761CD3E017F8040B8DF80000002096
:100B80008DF80100E946012003E057F8049B4FF07F
:100B9000FF3069074FF0000501D40AE06D1C4545A0
:100BA0000DDA8542FADB19F805100029F6D106E0C6
:100BB0006D1C8542FCDB19F805100029F8D12E4484
:100BC00004E019F8010B5A460F9990476D1EF8D2B0
:100BD000A5E00A200021CDE90801C5F30250022852
:100BE0000DD001CFC117031E71F100030DDA4FF0D4
:100BF000000CD0EB0C006CEB01012D2308E0FF1D75
:100C000027F00707F7E80201EDE72B0504D52B23B2
:100C10008DF8283001233BE0EB0739D02023F7E79C
:100C20000A2000E010200021CDE9080107E0102093
:100C3000002145F00405CDE908014FF00808C5F38F
:100C4000025002280FD001CF00214FF0000A2B07DD
:100C50001FD5702A0DD0DDE908C38CF0100C5CEABA
:100C6000030C0CD015E0FF1D27F00707F7E8020181
:100C7000EBE740228DF828204FF0010A0BE050EA04
:100C8000010306D030238DF828308DF82920022367
:100C90009A46582A04D024A20DF120090B9209E0AB
:100CA00026A2F9E7DDE90823FFF780FA0B9B9B5C9E
:100CB00009F8013D50EA0102F4D1ADEB0900203002
:100CC0000890680701D44FF001080899884502DDB3
:100CD000A8EB010000E000208046002506E00AA8FD
:100CE0005A46405D0F9990476D1C761C5545F6DBC2
:100CF00004E030205A460F999047761CB8F1000165
:100D0000A8F10108F5DC05E019F8010B5A460F9926
:100D10009047761C0899481E08900029F4DC641C52
:100D2000C5E600000928010030313233343536374A
:100D30003839616263646566000000003031323327
:100D400034353637383941424344454600000000C7
:100D5000024909688143014A11607047002401403B
:100D600010B5012204214FF0904000F07DF810BD35
:100D700010B5012204214FF0904000F075F810BD2D
:100D800010B5012208214FF0904000F06DF810BD21
:100D900010B5044634B9002240214FF0904000F0D5
:100DA00063F805E0012240214FF0904000F05CF82C
:100DB00010BD000010B504462CB9002202210548E0
:100DC00000F052F804E001220221024800F04CF841
:100DD00010BD00000004004810B5044634B90022DC
:100DE0004FF48041044800F03FF804E001229103F1
:100DF000014800F039F810BD0004004810B5044661
:100E000034B1002220214FF0904000F02DF805E091
:100E1000012220214FF0904000F026F810BD000084
:100E200010B504462CB100220421054800F01CF83E
:100E300004E001220421024800F016F810BD000071
:100E40000004004810B5044634B100224FF40051AC
:100E5000044800F009F804E001225103014800F0C1
:100E600003F810BD0004004870B505460E46144650
:100E700024B1012C08D0022C12D10BE00022314603
:100E8000284600F0DCF90BE001223146284600F04C
:100E9000D6F905E001223146284600F0D0F900BF1E
:100EA00000BF70BD10B5044634B1002210214FF0D0
:100EB0009040FFF7D9FF05E0012210214FF090404C
:100EC000FFF7D2FF10BD000010B504462CB1002280
:100ED00008210548FFF7C8FF04E001220821024865
:100EE000FFF7C2FF10BD00000004004810B5044623
:100EF00034B100224FF480510448FFF7B5FF04E0FD
:100F0000012211030148FFF7AFFF10BD00040048A4
:100F100010B50446FFF734FF2046FFF739FF0020E5
:100F2000FFF7C0FF0120FFF769FF00F0E3FF10BDEE
:100F300010B50446FFF714FF2046FFF73BFF0020E3
:100F4000FFF7C2FF0120FFF76BFF00F0B3FF10BDFA
:100F500010B50446FFF70CFF2046FFF73DFF0020C9
:100F6000FFF7C4FF0120FFF76DFF00F0B3FF10BDD6
:100F700010B500F0C7FF0020FFF740FF0120FFF78A
:100F800091FF10BD10B500F09DFF0020FFF748FF56
:100F90000120FFF799FF10BD10B500F0A3FF00205E
:100FA000FFF750FF0120FFF7A1FF10BD04480068C4
:100FB00020B103480068401E0149086070470000E6
:100FC0008C000020014908607047000014040140B3
:100FD00001460748006800EA010205481438006825
:100FE00000EA010312B10BB1012070470020FCE7B9
:100FF0001404014070B504460D464FF4702000F013
:1010000047F806468EB90A48006940F001000849D1
:10101000086125804FF4702000F03AF80646044835
:10102000006920F0010002490861304670BD0000EF
:10103000002002400348006940F080000149086137
:10104000704700000020024030B504464FF4702085
:1010500000F01EF80546B5B90C48006940F00200E2
:101060000A49086108464461006940F0400008618F
:101070004FF4702000F00CF805460448006920F099
:10108000020002490861284630BD000000200240ED
:1010900000B50346012200BF00F00CF802465B1EBB
:1010A000012A01D1002BF7D1012A00D104221046D8
:1010B00000BD000000200A49C96801F0010109B122
:1010C00001200CE00649C96801F0100109B10320B4
:1010D00005E00349C96801F0040101B1022070472D
:1010E000002002400548006900F0800020B104485B
:1010F00002494860034848607047000000200240F1
:1011000023016745AB89EFCD70B504460D464FF41A
:101110007020FFF7BDFF06468EB90A48006940F00F
:1011200001000849086125604FF47020FFF7B0FF07
:1011300006460448006920F0010002490861304673
:1011400070BD00000020024070B504460D46E1B2BB
:10115000064800F098FF00BF40F20771034800F016
:10116000BCFF0028F8D0204670BD000000380140C8
:101170007047000010B50446104931F8140000F023
:10118000D5FD0F4951F824300E4951F824000022B2
:10119000012100F061F80A4951F82430094951F859
:1011A00024000322002100F07EF8054850F82400B6
:1011B000044951F82410886210BD0000D8210008AD
:1011C000D0210008C8210008034951F82010034A23
:1011D00052F82020D1627047D0210008C8210008B1
:1011E000F0B503461C6A5D6A00200DE001268640CA
:1011F00016403EB187000F26BE40B443860001FA78
:1012000006F63443461CB0B20828EFD3082011E09C
:101210000126864016405EB1A0F10806B7000F26F1
:10122000BE40B543A0F10806B60001FA06F6354304
:10123000461CB0B21028EBD31C625D62F0BD0AB14F
:10124000816100E08162704702461069084008B180
:10125000012070470020FCE7F0B504460D46164615
:101260002168E268002019E0012787401F409FB1F4
:101270004FEA400C032707FA0CF7B943470005FA79
:1012800007F739434FEA400C032707FA0CF7BA4334
:10129000470006FA07F73A43471CB8B21028E3D3D1
:1012A0002160E260F0BDF0B504460E46012E03D188
:1012B00067681F43676002E067689F436760A168D3
:1012C0004FF6FF77BA4216D1E56B00200EE00127FA
:1012D00087401F4047B14FEA400C032707FA0CF73D
:1012E0003943012787403D43471CB8B21028EED34D
:1012F000A160E56314E000200FE0012787401F4054
:101300004FB14FEA400C032707FA0CF7B9434700E7
:1013100002FA07F73943471CB8B21028EDD3A16091
:10132000F0BD000010B52749274800F00DFA18B1AC
:101330002449254800F0F2F92449234800F004FA32
:1013400018B12249204800F0E9F921491E4800F06F
:10135000FBF918B11E491C4800F0E0F91D491A4874
:1013600000F0F2F918B11B49174800F0D7F91A49F3
:10137000154800F0E9F918B11749134800F0CEF903
:101380001649114800F0E0F918B114490E4800F070
:10139000C5F913490C4800F0D7F918B110490A48AB
:1013A00000F0BCF94FF48471074800F09DF94FF448
:1013B0008571054800F098F940F20911024800F0E3
:1013C00093F910BD08010A050058004008010F05F7
:1013D00008010E0508010B050801090508010805AB
:1013E00008010C0510B533480078012821D1324995
:1013F000324800F0A9F920B12F49304800F08EF9A9
:1014000057E02F492D4800F09FF9002851D02D4971
:101410002A4800F099F900284BD12B480068017840
:1014200029480068401C284B1860244800F054F9F3
:101430003FE02149214800F087F938B11E491F4893
:1014400000F06CF921A0FFF703FB32E021491B48B3
:1014500000F07AF970B1194800F03AF91E490968AC
:1014600008701D480068401C1B4908601BA0FFF75E
:10147000EFFA1EE01B49114800F066F9C8B10120DF
:1014800019490870194908700C4800F028F94FF400
:1014900084710A4800F028F94FF48571074800F07C
:1014A00023F940F20911054800F01EF910A0FFF7DA
:1014B000CFFA10BD95000020090101050058004039
:1014C0000901070508010A05340000207878783101
:1014D0000000000009010605380000207878783205
:1014E00000000000090104059400002040000020D5
:1014F000787878330000000010B540F2165000F004
:1015000015FC402200211048FFF76AFE80220021CE
:101510000D48FFF765FE4023002202210A48FFF72D
:101520009BFE4023032201210748FFF7BCFE8023D6
:10153000002202210448FFF78FFE802303220121AD
:101540000148FFF7B0FE10BD001400480A46002114
:10155000016821F480611143016070472DE9F05F5B
:1015600004460E469246022000F092FA074646488C
:10157000B7FBF0F8B8F13F0F01D34FF03F08D4F8B4
:1015800004B02BF03F0B4BEA080BC4F804B03F4803
:1015900086421ED83C48B7FBF0F000F10109B9F1D2
:1015A0003F0F02D33F20206207E0B9F1020F02D8BB
:1015B0000220206201E0C4F820907000B7FBF0F533
:1015C000042D00D20425E069C5F30B010843E06156
:1015D00058E02F4886422CD84FF4967008FB00F054
:1015E0004FF47A71B0FBF1F0401C2062BAF1000FA9
:1015F00008D106EB4600B7FBF0F5E06920F4804027
:10160000E06109E006EBC60000EB0610B7FBF0F561
:10161000E06940F48040E061C5F30B0008B945F093
:101620000105E06940F40040E061E0692843E061C1
:1016300028E0C8EB0810C0004FF47A71B0FBF1F05D
:10164000401C2062BAF1000F08D106EB4600B7FB40
:10165000F0F5E06920F48040E06109E006EBC600A7
:1016600000EB0610B7FBF0F5E06940F48040E06164
:10167000E06940F40040E061E0692843E061012056
:10168000C4F89000BDE8F09F40420F00A086010022
:10169000801A060010B540F2167000F047FB0022D9
:1016A00009490A48FFF75AFFE42300221146074878
:1016B00000F078F8054800F012F84FF48061034814
:1016C000FFF744FF10BD0000A08601000058004055
:1016D00001460869C0B27047CAB20261704701682A
:1016E00041F001010160704710B500EB91121268E2
:1016F00001F01F040123A3409A4300EB91131A60E9
:1017000010BD10B500EB9112126801F01F04012307
:10171000A3401A4300EB91131A6010BD10B5094A9B
:10172000914202D1426982690AE000EB915212684B
:10173000C1F304440123A3409A4300EB91531A6080
:1017400010BD000009010105F0B502460023002488
:10175000506800F48065C1F38910105801F01F072C
:101760000126BE4000EA060302EB91500068C1F377
:1017700004470126BE4000EA06040848814202D020
:101780000748814204D113B10DB1012300E00023C9
:1017900014B10BB10120F0BD0020FCE709010605E2
:1017A0000901070530B50C460021016821F002014E
:1017B00021430160C3F3090342EA0305856030BD9C
:1017C00010B54FF4C06000F059F902220021182032
:1017D00000F0FEF801220021222000F0F9F810BDEF
:1017E00070B505460C460B4805600B4804600020A8
:1017F0000A4908704FF484710948FFF782FF4FF4DB
:1018000085710748FFF77DFF40F209110448FFF793
:1018100078FF70BD380000203C00002095000020BB
:101820000058004010B50020FFF7A4FC0120FFF78E
:10183000A1FC10BD9AB0642101A8FEF7ACFC4FF4E6
:10184000A06000F01BF900F00DFB00F0B9F800F00B
:10185000A3FB00F079FB3FA0FFF7FAF841A0FFF7E8
:10186000F7F801210020FFF783FCFFF7DBFFFEF70D
:101870004AFE41480088AA2849D1FFF733FC3F4877
:10188000FFF7E2FB4FF6FF713B48FFF7B3FBFFF7B3
:1018900033FEFFF7FFFEFFF793FF39483949086031
:1018A00039483A490860022039490860002039491E
:1018B00008703748016801A8FFF792FF04E09DF81F
:1018C000041035A0FFF7C4F89DF804005528F6D1A0
:1018D0009DF80400552801D1FEF74CFE3048006801
:1018E00030490840B0F1005F31D12D48001D00683B
:1018F0002D490860084600682C4908602849086896
:1019000080F3088800BF2948006880471FE024480A
:10191000016827A0FFF79CF821480068214908408A
:10192000B0F1005F13D124A0FFF792F81C48001D0E
:1019300000681D490860084600681C49086018498D
:10194000086880F3088800BF18480068804700BF17
:10195000FEE70000696E69742073746172740D0A89
:1019600000000000696E6974206B657920616E6407
:10197000204C45440D0A0000FEFF000800FC000852
:10198000F00000203400002000010020380000207A
:101990003C0000204000002036363A25640A000052
:1019A000002800080000FE2F600000205C000020DE
:1019B000307825780A000000323232320A00000006
:1019C00010B5002211461B2000F002F810BD0000E7
:1019D0002DE9F04103460D46164600240027A04697
:1019E0002448006800F4E060B0F5A06F15D006DC74
:1019F000B0F5407F18D0B0F5806F19D110E0B0F588
:101A0000C06F06D0B0F5E06F12D100274FF0040888
:101A100015E001274FF0030811E00227B8460EE059
:101A200003274FF001080AE004274FF0000806E002
:101A30004FF4A06000F022F80227B84600BF00BFB4
:101A4000C7F1040005FA00F4C8F104010F20C840F2
:101A50003040044324010848C45403F01F0101200E
:101A600088405911890001F1E021C1F80001BDE869
:101A7000F08100000CED00E000E400E002490143C9
:101A8000024A1160704700000000FA050CED00E00A
:101A90002DE9F04F92B08446002011901090002460
:101AA0000F90002500210E9000230D900C900B90BC
:101AB0000022002600270A9009900890804681465F
:101AC00090A090E8004CC068CDE905BECDF810A00C
:101AD00007900FF2342ADAE9000ACDE9020A0FF280
:101AE000282ADAE9000ACDE9000A8A484068C0F3EA
:101AF00081001190119820B1012804D0022847D10B
:101B000003E0854D46E0844D44E082484068C0F3E0
:101B1000834280484068C0F3C0667E48C06AC70FF1
:101B20000EB907B9921C012E01D107B9113216B9AD
:101B3000012F00D12132012E02D1012F00D13132EB
:101B400074484068C0F300400A907248C06AC0F30D
:101B5000807009900A98B8B16E48C06A00F00F0012
:101B6000401C0890099838B9DFF8ACA10898BAFB76
:101B7000F0F000FB02F50AE0DFF8A0A10898BAFB3C
:101B8000F0F000FB02F502E0654802FB00F501E021
:101B9000614D00BF00BF5F484068C0F3031804A850
:101BA00010F8089025FA09F15A484068C0F3022855
:101BB00002A810F8089021FA09F00E9055484068E4
:101BC000C0F3C2281DF8089021FA09F3BCF1070FF1
:101BD00075D2DFE80CF00406080B0D5D6D000F9563
:101BE0008BE00F9189E00E980F9086E00F9384E0D0
:101BF0004848006B00F48070B0F5807F0CD04548F9
:101C0000006B00F48030B0F5803F02D045480D9065
:101C10003BE045480D9038E03E484068C0F38130D5
:101C200010903C48006BC40F109830B101280DD0C3
:101C3000022814D0032826D11CE014B958080D90AE
:101C400003E00320B1FBF0F00D901DE014B99808FB
:101C50000D9003E00520B1FBF0F00D9014E024B9E5
:101C60000620B3FBF0F00D9003E00720B1FBF0F08D
:101C70000D9009E014B9D8080D9003E00920B1FBDC
:101C8000F0F00D9000E000BF00BF0D980F9034E021
:101C90002048006B00F04000402803D048F21200BA
:101CA0000C9002E04FF400400C900C980F9024E050
:101CB0001848006B00F0030010B90B9319E01BE00B
:101CC0001448006B00F00300012801D10B9510E0CF
:101CD0001048006B00F00300022802D180030B9033
:101CE00007E00C48006B00F00300032801D10A480C
:101CF0000B900B980F9000E000BF00BF0F9812B040
:101D0000BDE8F08F000000000000000001020304A5
:101D1000060708090010024000127A00006CDC027D
:101D200000093D00809FD500003FAB01064A02EB51
:101D30009011096800F01F0301229A401143024BE1
:101D400003EB90121160704700100240064A02EB4C
:101D50009011096800F01F0301229A409143024B41
:101D600003EB90121160704700100240064A02EB2C
:101D70009011096800F01F0301229A401143024BA1
:101D800003EB901211607047001002400020002108
:101D90002E4A126842F480322C4B1A6000BF401C5D
:101DA0002A4A126802F4003111B9B0F5006FF6D179
:101DB000264A126802F4003202B97047234A526878
:101DC000224B5A601A46526842F400525A601A4630
:101DD000526842F480625A601A4652681C4B1A409C
:101DE0001A4B5A601A46D26A1A4B1A40174BDA62DB
:101DF0001A465268184B1A43144B5A601A46D26A54
:101E000042F00102DA621A46D26ADA621A461268AF
:101E100042F080721A6000BF0C4A126802F0007231
:101E2000002AF9D0094A526822F00302074B5A608F
:101E30001A46526842F002025A6000BF034A5268D2
:101E400002F00802002AF9D000BFB6E700100240F5
:101E5000FFFFC0F7F0FFFF3F0000110810B5FFF7CC
:101E600095FF10BD10B5124800684FF47A71B0FBB1
:101E7000F1F4601EB0F1807F01D301200FE0601EFD
:101E80004FF0E02148610F214FF0FF30FEF75CFB7F
:101E900000204FF0E021886107200861002008B190
:101EA00000BFFEE70021481EFEF74EFB10BD0000FC
:101EB0009800002010B5024800F031F810BD000075
:101EC000002C014010B5024800F024F810BD0000BD
:101ED000002C014010B5024800F021F810BD0000B0
:101EE0000040014010B5024800F014F810BD000099
:101EF0000040014010B5024800F011F810BD00008C
:101F00000004004010B5024800F004F810BD0000C5
:101F100000040040016821F0010101607047016880
:101F200041F0010101607047CA43026170470246F7
:101F3000D06800EA01031069084010B10BB101201C
:101F400070470020FCE7000010B540F20E60FFF77C
:101F5000EDFE104800F09CF800210E4800F01DF93D
:101F600000210C4800F005F900210A4800F0EDF8C6
:101F70004FF4E131074800F043F80421054800F030
:101F8000F0F80821034800F000F9024800F0A0F83A
:101F900010BD00000038014010B540F21150FFF7AD
:101FA000C5FE4FF4007201214FF09040FFF718F981
:101FB0004FF4806201214FF09040FFF711F94FF488
:101FC0000073012202214FF09040FFF745F94FF4D2
:101FD0000073012200214FF09040FFF764F94FF4A5
:101FE0008063012202214FF09040FFF735F94FF452
:101FF0008063012200214FF09040FFF754F910BD9B
:102000002DE9F04704460D460027B846B94600269C
:102010001948204438B1B0F5744F09D10620FFF7B4
:1020200037FD074605E00220FFF732FD074600E0D6
:1020300000BF00BF206800F4004070B1780000EBE2
:102040005500B0FBF5F64FF6F07006EA0008C6F34F
:10205000420948EA0900E0600CE007EB5500B0FBDC
:10206000F5F64FF6F07006EA000806F00F0948EAA8
:102070000900E060BDE8F08700BCFFBF0146486A88
:10208000C0F308007047C1F3080282627047000085
:1020900010B504460D48204458B1B0F5744F11D125
:1020A00040F20E30FFF762FE40F20E30FFF74EFEB8
:1020B00009E040F21140FFF759FE40F21140FFF7EE
:1020C00045FE00E000BF00BF10BD000000BCFFBF28
:1020D000016841F001010160704710B5024602EB52
:1020E0009110006801F01F040123A340184008B1BB
:1020F000012010BD0020FCE710B500EB9112126822
:1021000001F01F040123A3409A4300EB91131A60CE
:1021100010BD70B5024600230024C1F38910105889
:1021200001F01F060125B54000EA050302EB9150BE
:102130000068C1F304460125B54000EA050414B166
:102140000BB1012070BD0020FCE7026822F0010203
:102150000260026822F4C062026002680A43026000
:102160007047026822F00402026002680A430260BB
:102170007047026822F001020260426822F4405275
:10218000426042680A4342607047026822F00802D7
:10219000026002680A4302607047026822F001028E
:1021A0000260026822F48052026002680A43026000
:1021B00070470000F40100001027000064000000D8
:1021C000000B000000040000001400480014004848
:1021D00040000000800000001605160500000048C1
:1021E00001000000110500000100000000000500D2
:1021F0001022000800000020A0000000700A000863
:10220000B0220008A000002078080000800A000822
:102210007465737400040074657374000006000034
:1022200000000000000000000000000000000000AE
:10223000000000000000000000000000000000009E
:10224000000000000000000000000000000000008E
:10225000000000000000000000000000000000007E
:10226000000000000000000000000000000000006E
:10227000000000000000000000000000000000005E
:10228000000000000000000000000000000000004E
:10229000000000000000000000000000000000003E
:1022A000000000000000000000BD0105000000006B
:04000005080001519D
:00000001FF
