:020000040800F2
:100000001809002065010008450500082D050008B5
:1000100041050008730200084D0A000800000000B6
:1000200000000000000000000000000001070008C0
:1000300077020008000000007105000803070008AF
:100040007F0100087F0100087F0100087F01000890
:100050007F010008790200087F010008A90200085A
:100060007F0100087F0100087F0100087F01000870
:100070007F0100087F010008150900081909000820
:10008000310900087F010008000000007F0100081E
:10009000170900087F0100087F0100087F010008A0
:1000A000390500087F0100087F010008BD0900082C
:1000B0007F010008000000007F0100080000000030
:1000C0007F0100080000000031050008000000006A
:1000D0000000000000000000000000000000000020
:1000E00000000000000000007F0100080000000088
:1000F0000000000000000000000000000000000000
:100100007F01000800000000000000000000000067
:1001100000000000000000000000000000000000DF
:1001200000000000000000000000000000000000CF
:1001300000000000000000000000000000000000BF
:100140000000000000000000000000007F01000827
:10015000DFF80CD000F05CF80048004735180008C4
:10016000180900200648804706480047FEE7FEE7DA
:10017000FEE7FEE7FEE7FEE7FEE7FEE7FEE7FEE757
:100180000D07000851010008D2B201E000F8012B70
:10019000491EFBD270470022F6E710B513460A4607
:1001A00004461946FFF7F0FF204610BD2DE9F05F29
:1001B0000546002092469B468846064681464024D6
:1001C0001BE0284641464746224600F042F8534687
:1001D0005A46C01A914110D311461846224600F0E3
:1001E00029F82D1A67EB01084F462246012000210D
:1001F00000F020F817EB00094E41201EA4F1010485
:10020000DFDC484631462A464346BDE8F09F000001
:10021000064C074D06E0E06840F0010394E8070053
:1002200098471034AC42F6D3FFF796FFF021000850
:1002300010220008202A04DB203A00FA02F10020F4
:1002400070479140C2F1200320FA03F31943904014
:100250007047202A04DB203A21FA02F0002170477F
:1002600021FA02F3D040C2F120029140084319461E
:10027000704700BFFEE7704710B5012000F0A8FEF0
:1002800070B1002000F0A0FF01214FF0904000F07D
:10029000DBFF012802D100F03BFE01E000F068FE28
:1002A000012000F08FFE10BD10B5802000F090FE00
:1002B000B8B184480068012810D08021824800F03D
:1002C000C3FF30B9012081490860002000F020FE02
:1002D00004E000207D49086000F04AFE802000F024
:1002E00071FE4FF4807000F073FEC0B17748006873
:1002F000012810D04FF48071734800F0A5FF28B991
:1003000001207049086000F003FE04E000206D4900
:10031000086000F02DFE4FF4807000F053FE2020A6
:1003200000F056FEB8B16A480068012810D02021BC
:10033000654800F089FF30B9012066490860002057
:1003400000F0F6FD04E000206249086000F01AFEAB
:10035000202000F037FE402000F03AFEB0B15D48AA
:10036000006801280FD04021574800F06DFF28B9E0
:1003700001205749086000F0DBFD04E000205449EB
:10038000086000F0FFFD402000F01CFE4FF40070FC
:1003900000F01EFED8B150480068012813D04FF479
:1003A0000071494800F050FF30B901204B49086006
:1003B000002000F0CDFD06E000204849086000F074
:1003C00003FF00F0E9FD4FF4007000F0FBFD4FF477
:1003D000806000F0FDFDC0B140480068012810D0E9
:1003E0004FF48061384800F02FFF28B901203A49C6
:1003F000086000F0ADFD04E000203749086000F01F
:10040000CBFD4FF4806000F0DDFD4FF4006000F0A4
:10041000DFFD88B14FF400614FF0904000F014FF11
:1004200018B901202E49086002E000202C4908601C
:100430004FF4006000F0C6FD4FF4805000F0C8FD9E
:1004400088B14FF480514FF0904000F0FDFE18B994
:1004500001202449086002E00020224908604FF48E
:10046000805000F0AFFD4FF4004000F0B1FD88B1C6
:100470004FF400414FF0904000F0E6FE18B9012023
:100480001949086002E00020174908604FF4004055
:1004900000F098FD4FF4005000F09AFD80B14FF449
:1004A0000051124800F0D0FE18B901201049086030
:1004B00002E000200E4908604FF4005000F082FD79
:1004C00010BD000068000020000400486400002007
:1004D000700000206C000020800000207C000020C4
:1004E00074000020780000208400002000080048EC
:1004F0008800002070B504460025204600F0A4FDC9
:100500000546284670BD10B500F0ECFD10BD70B575
:1005100004460D46002600F0E5FD2946204600F081
:10052000F3FD064600F086FD304670BD00BFFEE7D5
:1005300010B500F0F7FE10BD10B500F053FF10BD70
:1005400000BFFEE77047000010B5002807DA0A0771
:10055000140E054A00F00F031B1FD45403E00A07D2
:10056000130E024A135410BD18ED00E000E400E041
:1005700070470000FEB54A4D00240026002002907E
:10058000019000900127474E00BF2846009009E0E7
:100590000098FFF7AFFF08B100BFFEE7009800F535
:1005A00080600090404900988842F1D33FA000F05D
:1005B0004FFA3B4801683FA000F04AFA6DE03BA0CB
:1005C00000F046FA364801683AA000F041FA0020EF
:1005D0003A4908704FF48061394800F0B7FF0221B2
:1005E000304801F0FDF800BF344800780028FBD007
:1005F00000203249087004E02A48017831A000F058
:1006000027FA28480078042803D0264800780128D3
:10061000F2D104E0234841782DA000F019FA2148D6
:10062000407818B11F4840785C28F3D11D48007805
:1006300004021C4840780443214628A000F008FA30
:10064000B4F5806F00D200274FF480611C4800F0A1
:100650007DFF2146134801F0C3F800BF174800781A
:100660000028FBD000201549087002940DE0029A82
:10067000B21A1159029AAA1A1019FFF748FF08B1C5
:1006800000BFFEE70298001F029002980028EED1FA
:10069000214615A000F0DCF92544012F8FD0FEBDC6
:1006A000002800081001002000D400083232320A6D
:1006B00000000000307825780A0000009400002037
:1006C00000580040363636363A25640A00000000ED
:1006D00036363636313A25640A00000073697A6589
:1006E0003A25640A000000007472616E736D6974CB
:1006F0002073756363657373203A25640A000000F4
:10070000704710B500F052FC10BD000008B57748E6
:10071000C06900F00600062871D07448C069C0F3B3
:10072000403000286BD0724870494860714848607A
:100730006F4888606F4888600846006940F0200074
:1007400008610846006940F04000086100BF674842
:10075000C06800F001000028F9D16448006920F069
:100760002000624908610846006940F010000861F5
:100770000846C06900F0060018B9A5205E49088047
:1007800008E05A48C06900F00600022802D1BB20E8
:10079000594908805548C069000A00F0DF005649F1
:1007A000891C08805148C069C0F30740891C088033
:1007B0004E48C069000E891C08804C48006AC0B2CF
:1007C000891C08804948006AC0F30720891C0880FA
:1007D00000BF4648C06800F001000028F9D1434836
:1007E000006920F01000414908610846006920F4C2
:1007F000007008610846006940F0800008613F48C9
:10080000006840F470003D4908603D48006840F0D1
:1008100001003B49086000BF3948006800F0020051
:100820000028F9D000BF3648406840F080003449C5
:1008300048600020009002E00098401C0090009862
:100840005028F9D32E48406840F090002C49486069
:100850000020009002E00098401C00900098502872
:10086000F9D300BF2648406820F0030024494860BF
:100870000846006823490840214908600846406846
:10088000214908401E494860084640681F49084001
:100890001B4948600846C06A1D4908401849C8629B
:1008A0000846006B40F20311884315490863084667
:1008B000006B20F4803008630846006B20F0004095
:1008C00008630846406B20F0010048630C48C030C4
:1008D000006820F48030C1F8C0000020886008491A
:1008E000CC31086001F0BAFA08BD000000200240D7
:1008F00023016745AB89EFCD00F8FF1F88ED00E0CD
:1009000000100240FFFFF2FE0C00FF08FFFFC2775D
:10091000F0FFFF3F7047704710B50221480701F014
:1009200006FB012803D10221800701F0FDFA10BD6A
:1009300010B502211A4801F0FAFA01282FD102213C
:10094000174801F0F1FA022000F002FA1548006899
:10095000154908601548007801280ED1084600683E
:1009600013490968884202DB00F002FB17E01148D6
:100970000068401C0F49086011E00C48007802280C
:100980000DD1094800680C490968884202DC00F072
:10099000EFFA04E007480068401E0649086010BDF1
:1009A000000400404C2401402C00002000010020E5
:1009B000C021000820000020C421000810B51A49F9
:1009C0001A4801F0A6FBA0B1184801F057FBC1B2CC
:1009D00017480488601C164A1080164801551046B6
:1009E000008815490978884203D105210F4801F094
:1009F00083FB12490D4801F08CFB98B11048047834
:100A0000601C0F4A10700F48015D084801F03BFB65
:100A10000B4800780C490978884203D10721034824
:100A200001F06AFB10BD0000050005070038014019
:100A30000E000020070000200D000020070007071F
:100A400006000020000000200500002000BFFEE797
:100A50000FB4054B10B503A9044A029800F018F82A
:100A600010BC5DF814FB0000491100089C00002038
:100A700002E008C8121F08C1002AFAD17047704767
:100A8000002001E001C1121F002AFBD170470000C5
:100A90002DE9FF4F8DB09B460F460446002606E029
:100AA00025280BD05A460F999047641C761C207855
:100AB0000028F5D111B03046BDE8F08F0025A846DA
:100AC0000122984900E0054314F8013F203B02FA57
:100AD00003F00842F7D120782E2817D114F8010F1F
:100AE00045F004052A280ED06FF02F022078A0F1DF
:100AF000300109290AD808EB880102EB410100EB1B
:100B00000108641CF2E757F8048B641C20786C28F9
:100B10000DD004DC4C2812D06A2811D104E07428CE
:100B20000DD07A280CD10AE045F4001507E0617871
:100B300045F48015814202D1641C05F58015641CC2
:100B40002278692A45D008DC002AB3D0582A69D017
:100B5000632A10D0642A08D13BE0702A67D0732A38
:100B600013D0752A5CD0782A5CD010465A460F996B
:100B70009047761CD3E017F8040B8DF80000002096
:100B80008DF80100E946012003E057F8049B4FF07F
:100B9000FF3069074FF0000501D40AE06D1C4545A0
:100BA0000DDA8542FADB19F805100029F6D106E0C6
:100BB0006D1C8542FCDB19F805100029F8D12E4484
:100BC00004E019F8010B5A460F9990476D1EF8D2B0
:100BD000A5E00A200021CDE90801C5F30250022852
:100BE0000DD001CFC117031E71F100030DDA4FF0D4
:100BF000000CD0EB0C006CEB01012D2308E0FF1D75
:100C000027F00707F7E80201EDE72B0504D52B23B2
:100C10008DF8283001233BE0EB0739D02023F7E79C
:100C20000A2000E010200021CDE9080107E0102093
:100C3000002145F00405CDE908014FF00808C5F38F
:100C4000025002280FD001CF00214FF0000A2B07DD
:100C50001FD5702A0DD0DDE908C38CF0100C5CEABA
:100C6000030C0CD015E0FF1D27F00707F7E8020181
:100C7000EBE740228DF828204FF0010A0BE050EA04
:100C8000010306D030238DF828308DF82920022367
:100C90009A46582A04D024A20DF120090B9209E0AB
:100CA00026A2F9E7DDE90823FFF780FA0B9B9B5C9E
:100CB00009F8013D50EA0102F4D1ADEB0900203002
:100CC0000890680701D44FF001080899884502DDB3
:100CD000A8EB010000E000208046002506E00AA8FD
:100CE0005A46405D0F9990476D1C761C5545F6DBC2
:100CF00004E030205A460F999047761CB8F1000165
:100D0000A8F10108F5DC05E019F8010B5A460F9926
:100D10009047761C0899481E08900029F4DC641C52
:100D2000C5E600000928010030313233343536374A
:100D30003839616263646566000000003031323327
:100D400034353637383941424344454600000000C7
:100D5000024909688143014A11607047002401403B
:100D600010B5012204214FF0904000F07DF810BD35
:100D700010B5012204214FF0904000F075F810BD2D
:100D800010B5012208214FF0904000F06DF810BD21
:100D900010B5044634B9002240214FF0904000F0D5
:100DA00063F805E0012240214FF0904000F05CF82C
:100DB00010BD000010B504462CB9002202210548E0
:100DC00000F052F804E001220221024800F04CF841
:100DD00010BD00000004004810B5044634B90022DC
:100DE0004FF48041044800F03FF804E001229103F1
:100DF000014800F039F810BD0004004810B5044661
:100E000034B1002220214FF0904000F02DF805E091
:100E1000012220214FF0904000F026F810BD000084
:100E200010B504462CB100220421054800F01CF83E
:100E300004E001220421024800F016F810BD000071
:100E40000004004810B5044634B100224FF40051AC
:100E5000044800F009F804E001225103014800F0C1
:100E600003F810BD0004004870B505460E46144650
:100E700024B1012C08D0022C12D10BE00022314603
:100E8000284600F0DCF90BE001223146284600F04C
:100E9000D6F905E001223146284600F0D0F900BF1E
:100EA00000BF70BD10B5044634B1002210214FF0D0
:100EB0009040FFF7D9FF05E0012210214FF090404C
:100EC000FFF7D2FF10BD000010B504462CB1002280
:100ED00008210548FFF7C8FF04E001220821024865
:100EE000FFF7C2FF10BD00000004004810B5044623
:100EF00034B100224FF480510448FFF7B5FF04E0FD
:100F0000012211030148FFF7AFFF10BD00040048A4
:100F100010B50446FFF734FF2046FFF739FF0020E5
:100F2000FFF7C0FF0120FFF769FF00F0E3FF10BDEE
:100F300010B50446FFF714FF2046FFF73BFF0020E3
:100F4000FFF7C2FF0120FFF76BFF00F0B3FF10BDFA
:100F500010B50446FFF70CFF2046FFF73DFF0020C9
:100F6000FFF7C4FF0120FFF76DFF00F0B3FF10BDD6
:100F700010B500F0C7FF0020FFF740FF0120FFF78A
:100F800091FF10BD10B500F09DFF0020FFF748FF56
:100F90000120FFF799FF10BD10B500F0A3FF00205E
:100FA000FFF750FF0120FFF7A1FF10BD04480068C4
:100FB00020B103480068401E0149086070470000E6
:100FC0008C000020014908607047000014040140B3
:100FD00001460748006800EA010205481438006825
:100FE00000EA010312B10BB1012070470020FCE7B9
:100FF0001404014070B504460D464FF4702000F013
:1010000047F806468EB90A48006940F001000849D1
:10101000086125804FF4702000F03AF80646044835
:10102000006920F0010002490861304670BD0000EF
:10103000002002400348006940F080000149086137
:10104000704700000020024030B504464FF4702085
:1010500000F01EF80546B5B90C48006940F00200E2
:101060000A49086108464461006940F0400008618F
:101070004FF4702000F00CF805460448006920F099
:10108000020002490861284630BD000000200240ED
:1010900000B50346012200BF00F00CF802465B1EBB
:1010A000012A01D1002BF7D1012A00D104221046D8
:1010B00000BD000000200A49C96801F0010109B122
:1010C00001200CE00649C96801F0100109B10320B4
:1010D00005E00349C96801F0040101B1022070472D
:1010E000002002400548006900F0800020B104485B
:1010F00002494860034848607047000000200240F1
:1011000023016745AB89EFCD70B504460D464FF41A
:101110007020FFF7BDFF06468EB90A48006940F00F
:1011200001000849086125604FF47020FFF7B0FF07
:1011300006460448006920F0010002490861304673
:1011400070BD00000020024070B504460D46E1B2BB
:10115000064800F098FF00BF40F20771034800F016
:10116000BCFF0028F8D0204670BD000000380140C8
:101170007047000010B50446104931F8140000F023
:10118000D5FD0F4951F824300E4951F824000022B2
:10119000012100F061F80A4951F82430094951F859
:1011A00024000322002100F07EF8054850F82400B6
:1011B000044951F82410886210BD0000D8210008AD
:1011C000D0210008C8210008034951F82010034A23
:1011D00052F82020D1627047D0210008C8210008B1
:1011E000F0B503461C6A5D6A00200DE001268640CA
:1011F00016403EB187000F26BE40B443860001FA78
:1012000006F63443461CB0B20828EFD3082011E09C
:101210000126864016405EB1A0F10806B7000F26F1
:10122000BE40B543A0F10806B60001FA06F6354304
:10123000461CB0B21028EBD31C625D62F0BD0AB14F
:10124000816100E08162704702461069084008B180
:10125000012070470020FCE7F0B504460D46164615
:101260002168E268002019E0012787401F409FB1F4
:101270004FEA400C032707FA0CF7B943470005FA79
:1012800007F739434FEA400C032707FA0CF7BA4334
:10129000470006FA07F73A43471CB8B21028E3D3D1
:1012A0002160E260F0BDF0B504460E46012E03D188
:1012B00067681F43676002E067689F436760A168D3
:1012C0004FF6FF77BA4216D1E56B00200EE00127FA
:1012D00087401F4047B14FEA400C032707FA0CF73D
:1012E0003943012787403D43471CB8B21028EED34D
:1012F000A160E56314E000200FE0012787401F4054
:101300004FB14FEA400C032707FA0CF7B9434700E7
:1013100002FA07F73943471CB8B21028EDD3A16091
:10132000F0BD000010B52749274800F00DFA18B1AC
:101330002449254800F0F2F92449234800F004FA32
:1013400018B12249204800F0E9F921491E4800F06F
:10135000FBF918B11E491C4800F0E0F91D491A4874
:1013600000F0F2F918B11B49174800F0D7F91A49F3
:10137000154800F0E9F918B11749134800F0CEF903
:101380001649114800F0E0F918B114490E4800F070
:10139000C5F913490C4800F0D7F918B110490A48AB
:1013A00000F0BCF94FF48471074800F09DF94FF448
:1013B0008571054800F098F940F20911024800F0E3
:1013C00093F910BD08010A050058004008010F05F7
:1013D00008010E0508010B050801090508010805AB
:1013E00008010C0510B533480078012821D1324995
:1013F000324800F0A9F920B12F49304800F08EF9A9
:1014000057E02F492D4800F09FF9002851D02D4971
:101410002A4800F099F900284BD12B480068017840
:1014200029480068401C284B1860244800F054F9F3
:101430003FE02149214800F087F938B11E491F4893
:1014400000F06CF921A0FFF703FB32E021491B48B3
:1014500000F07AF970B1194800F03AF91E490968AC
:1014600008701D480068401C1B4908601BA0FFF75E
:10147000EFFA1EE01B49114800F066F9C8B10120DF
:1014800019490870194908700C4800F028F94FF400
:1014900084710A4800F028F94FF48571074800F07C
:1014A00023F940F20911054800F01EF910A0FFF7DA
:1014B000CFFA10BD95000020090101050058004039
:1014C0000901070508010A05340000207878783101
:1014D0000000000009010605380000207878783205
:1014E00000000000090104059400002040000020D5
:1014F000787878330000000010B540F2165000F004
:1015000015FC402200211048FFF76AFE80220021CE
:101510000D48FFF765FE4023002202210A48FFF72D
:101520009BFE4023032201210748FFF7BCFE8023D6
:10153000002202210448FFF78FFE802303220121AD
:101540000148FFF7B0FE10BD001400480A46002114
:10155000016821F480611143016070472DE9F05F5B
:1015600004460E469246022000F092FA074646488C
:10157000B7FBF0F8B8F13F0F01D34FF03F08D4F8B4
:1015800004B02BF03F0B4BEA080BC4F804B03F4803
:1015900086421ED83C48B7FBF0F000F10109B9F1D2
:1015A0003F0F02D33F20206207E0B9F1020F02D8BB
:1015B0000220206201E0C4F820907000B7FBF0F533
:1015C000042D00D20425E069C5F30B010843E06156
:1015D00058E02F4886422CD84FF4967008FB00F054
:1015E0004FF47A71B0FBF1F0401C2062BAF1000FA9
:1015F00008D106EB4600B7FBF0F5E06920F4804027
:10160000E06109E006EBC60000EB0610B7FBF0F561
:10161000E06940F48040E061C5F30B0008B945F093
:101620000105E06940F40040E061E0692843E061C1
:1016300028E0C8EB0810C0004FF47A71B0FBF1F05D
:10164000401C2062BAF1000F08D106EB4600B7FB40
:10165000F0F5E06920F48040E06109E006EBC600A7
:1016600000EB0610B7FBF0F5E06940F48040E06164
:10167000E06940F40040E061E0692843E061012056
:10168000C4F89000BDE8F09F40420F00A086010022
:10169000801A060010B540F2167000F047FB0022D9
:1016A00009490A48FFF75AFFE42300221146074878
:1016B00000F078F8054800F012F84FF48061034814
:1016C000FFF744FF10BD0000A08601000058004055
:1016D00001460869C0B27047CAB20261704701682A
:1016E00041F001010160704710B500EB91121268E2
:1016F00001F01F040123A3409A4300EB91131A60E9
:1017000010BD10B500EB9112126801F01F04012307
:10171000A3401A4300EB91131A6010BD10B5094A9B
:10172000914202D1426982690AE000EB915212684B
:10173000C1F304440123A3409A4300EB91531A6080
:1017400010BD000009010105F0B502460023002488
:10175000506800F48065C1F38910105801F01F072C
:101760000126BE4000EA060302EB91500068C1F377
:1017700004470126BE4000EA06040848814202D020
:101780000748814204D113B10DB1012300E00023C9
:1017900014B10BB10120F0BD0020FCE709010605E2
:1017A0000901070530B50C460021016821F002014E
:1017B00021430160C3F3090342EA0305856030BD9C
:1017C00010B54FF4C06000F059F902220021182032
:1017D00000F0FEF801220021222000F0F9F810BDEF
:1017E00070B505460C460B4805600B4804600020A8
:1017F0000A4908704FF484710948FFF782FF4FF4DB
:1018000085710748FFF77DFF40F209110448FFF793
:1018100078FF70BD380000203C00002095000020BB
:101820000058004010B50020FFF7A4FC0120FFF78E
:10183000A1FC10BD9AB0642101A8FEF7ACFC4FF4E6
:10184000A06000F01BF900F00DFB00F0B9F800F00B
:10185000A3FB00F079FB3FA0FFF7FAF841A0FFF7E8
:10186000F7F801210020FFF783FCFFF7DBFFFEF70D
:101870004AFE41480088AA2849D1FFF733FC3F4877
:10188000FFF7E2FB4FF6FF713B48FFF7B3FBFFF7B3
:1018900033FEFFF7FFFEFFF793FF39483949086031
:1018A00039483A490860022039490860002039491E
:1018B00008703748016801A8FFF792FF04E09DF81F
:1018C000041035A0FFF7C4F89DF804005528F6D1A0
:1018D0009DF80400552801D1FEF74CFE3048006801
:1018E00030490840B0F1005F31D12D48001D00683B
:1018F0002D490860084600682C4908602849086896
:1019000080F3088800BF2948006880471FE024480A
:10191000016827A0FFF79CF821480068214908408A
:10192000B0F1005F13D124A0FFF792F81C48001D0E
:1019300000681D490860084600681C49086018498D
:10194000086880F3088800BF18480068804700BF17
:10195000FEE70000696E69742073746172740D0A89
:1019600000000000696E6974206B657920616E6407
:10197000204C45440D0A0000FEFF000800FC000852
:10198000F00000203400002000010020380000207A
:101990003C0000204000002036363A25640A000052
:1019A000002800080000FE2F600000205C000020DE
:1019B000307825780A000000323232320A00000006
:1019C00010B5002211461B2000F002F810BD0000E7
:1019D0002DE9F04103460D46164600240027A04697
:1019E0002448006800F4E060B0F5A06F15D006DC74
:1019F000B0F5407F18D0B0F5806F19D110E0B0F588
:101A0000C06F06D0B0F5E06F12D100274FF0040888
:101A100015E001274FF0030811E00227B8460EE059
:101A200003274FF001080AE004274FF0000806E002
:101A30004FF4A06000F022F80227B84600BF00BFB4
:101A4000C7F1040005FA00F4C8F104010F20C840F2
:101A50003040044324010848C45403F01F0101200E
:101A600088405911890001F1E021C1F80001BDE869
:101A7000F08100000CED00E000E400E002490143C9
:101A8000024A1160704700000000FA050CED00E00A
:101A90002DE9F04F92B08446002011901090002460
:101AA0000F90002500210E9000230D900C900B90BC
:101AB0000022002600270A9009900890804681465F
:101AC00090A090E8004CC068CDE905BECDF810A00C
:101AD00007900FF2342ADAE9000ACDE9020A0FF280
:101AE000282ADAE9000ACDE9000A8A484068C0F3EA
:101AF00081001190119820B1012804D0022847D10B
:101B000003E0854D46E0844D44E082484068C0F3E0
:101B1000834280484068C0F3C0667E48C06AC70FF1
:101B20000EB907B9921C012E01D107B9113216B9AD
:101B3000012F00D12132012E02D1012F00D13132EB
:101B400074484068C0F300400A907248C06AC0F30D
:101B5000807009900A98B8B16E48C06A00F00F0012
:101B6000401C0890099838B9DFF8ACA10898BAFB76
:101B7000F0F000FB02F50AE0DFF8A0A10898BAFB3C
:101B8000F0F000FB02F502E0654802FB00F501E021
:101B9000614D00BF00BF5F484068C0F3031804A850
:101BA00010F8089025FA09F15A484068C0F3022855
:101BB00002A810F8089021FA09F00E9055484068E4
:101BC000C0F3C2281DF8089021FA09F3BCF1070FF1
:101BD00075D2DFE80CF00406080B0D5D6D000F9563
:101BE0008BE00F9189E00E980F9086E00F9384E0D0
:101BF0004848006B00F48070B0F5807F0CD04548F9
:101C0000006B00F48030B0F5803F02D045480D9065
:101C10003BE045480D9038E03E484068C0F38130D5
:101C200010903C48006BC40F109830B101280DD0C3
:101C3000022814D0032826D11CE014B958080D90AE
:101C400003E00320B1FBF0F00D901DE014B99808FB
:101C50000D9003E00520B1FBF0F00D9014E024B9E5
:101C60000620B3FBF0F00D9003E00720B1FBF0F08D
:101C70000D9009E014B9D8080D9003E00920B1FBDC
:101C8000F0F00D9000E000BF00BF0D980F9034E021
:101C90002048006B00F04000402803D048F21200BA
:101CA0000C9002E04FF400400C900C980F9024E050
:101CB0001848006B00F0030010B90B9319E01BE00B
:101CC0001448006B00F00300012801D10B9510E0CF
:101CD0001048006B00F00300022802D180030B9033
:101CE00007E00C48006B00F00300032801D10A480C
:101CF0000B900B980F9000E000BF00BF0F9812B040
:101D0000BDE8F08F000000000000000001020304A5
:101D1000060708090010024000127A00006CDC027D
:101D200000093D00809FD500003FAB01064A02EB51
:101D30009011096800F01F0301229A401143024BE1
:101D400003EB90121160704700100240064A02EB4C
:101D50009011096800F01F0301229A409143024B41
:101D600003EB90121160704700100240064A02EB2C
:101D70009011096800F01F0301229A401143024BA1
:101D800003EB901211607047001002400020002108
:101D90002E4A126842F480322C4B1A6000BF401C5D
:101DA0002A4A126802F4003111B9B0F5006FF6D179
:101DB000264A126802F4003202B97047234A526878
:101DC000224B5A601A46526842F400525A601A4630
:101DD000526842F480625A601A4652681C4B1A409C
:101DE0001A4B5A601A46D26A1A4B1A40174BDA62DB
:101DF0001A465268184B1A43144B5A601A46D26A54
:101E000042F00102DA621A46D26ADA621A461268AF
:101E100042F080721A6000BF0C4A126802F0007231
:101E2000002AF9D0094A526822F00302074B5A608F
:101E30001A46526842F002025A6000BF034A5268D2
:101E400002F00802002AF9D000BFB6E700100240F5
:101E5000FFFFC0F7F0FFFF3F0000110810B5FFF7CC
:101E600095FF10BD10B5124800684FF47A71B0FBB1
:101E7000F1F4601EB0F1807F01D301200FE0601EFD
:101E80004FF0E02148610F214FF0FF30FEF75CFB7F
:101E900000204FF0E021886107200861002008B190
:101EA00000BFFEE70021481EFEF74EFB10BD0000FC
:101EB0009800002010B5024800F031F810BD000075
:101EC000002C014010B5024800F024F810BD0000BD
:101ED000002C014010B5024800F021F810BD0000B0
:101EE0000040014010B5024800F014F810BD000099
:101EF0000040014010B5024800F011F810BD00008C
:101F00000004004010B5024800F004F810BD0000C5
:101F100000040040016821F0010101607047016880
:101F200041F0010101607047CA43026170470246F7
:101F3000D06800EA01031069084010B10BB101201C
:101F400070470020FCE7000010B540F20E60FFF77C
:101F5000EDFE104800F09CF800210E4800F01DF93D
:101F600000210C4800F005F900210A4800F0EDF8C6
:101F70004FF4E131074800F043F80421054800F030
:101F8000F0F80821034800F000F9024800F0A0F83A
:101F900010BD00000038014010B540F21150FFF7AD
:101FA000C5FE4FF4007201214FF09040FFF718F981
:101FB0004FF4806201214FF09040FFF711F94FF488
:101FC0000073012202214FF09040FFF745F94FF4D2
:101FD0000073012200214FF09040FFF764F94FF4A5
:101FE0008063012202214FF09040FFF735F94FF452
:101FF0008063012200214FF09040FFF754F910BD9B
:102000002DE9F04704460D460027B846B94600269C
:102010001948204438B1B0F5744F09D10620FFF7B4
:1020200037FD074605E00220FFF732FD074600E0D6
:1020300000BF00BF206800F4004070B1780000EBE2
:102040005500B0FBF5F64FF6F07006EA0008C6F34F
:10205000420948EA0900E0600CE007EB5500B0FBDC
:10206000F5F64FF6F07006EA000806F00F0948EAA8
:102070000900E060BDE8F08700BCFFBF0146486A88
:10208000C0F308007047C1F3080282627047000085
:1020900010B504460D48204458B1B0F5744F11D125
:1020A00040F20E30FFF762FE40F20E30FFF74EFEB8
:1020B00009E040F21140FFF759FE40F21140FFF7EE
:1020C00045FE00E000BF00BF10BD000000BCFFBF28
:1020D000016841F001010160704710B5024602EB52
:1020E0009110006801F01F040123A340184008B1BB
:1020F000012010BD0020FCE710B500EB9112126822
:1021000001F01F040123A3409A4300EB91131A60CE
:1021100010BD70B5024600230024C1F38910105889
:1021200001F01F060125B54000EA050302EB9150BE
:102130000068C1F304460125B54000EA050414B166
:102140000BB1012070BD0020FCE7026822F0010203
:102150000260026822F4C062026002680A43026000
:102160007047026822F00402026002680A430260BB
:102170007047026822F001020260426822F4405275
:10218000426042680A4342607047026822F00802D7
:10219000026002680A4302607047026822F001028E
:1021A0000260026822F48052026002680A43026000
:1021B00070470000F40100001027000064000000D8
:1021C000000B000000040000001400480014004848
:1021D00040000000800000001605160500000048C1
:1021E00001000000110500000100000000000500D2
:1021F0001022000800000020A0000000700A000863
:10220000B0220008A000002078080000800A000822
:102210007465737400040074657374000006000034
:1022200000000000000000000000000000000000AE
:10223000000000000000000000000000000000009E
:10224000000000000000000000000000000000008E
:10225000000000000000000000000000000000007E
:10226000000000000000000000000000000000006E
:10227000000000000000000000000000000000005E
:10228000000000000000000000000000000000004E
:10229000000000000000000000000000000000003E
:1022A000000000000000000000BD0105000000006B
:04000005080001519D
:00000001FF
:020000040800F2
:10280000701500206529000801310008E930000832
:10281000FD300008652E0008F137000800000000B8
:102820000000000000000000000000002F31000840
:10283000692E0008000000002D3100083131000829
:102840007F2900087F2900087F2900087F290008C8
:102850007F2900086B2E00087F2900089D2E0008A4
:102860007F2900087F2900087F2900087F290008A8
:102870007F2900087F2900085133000859340008D7
:10288000713400087F290008000000007F2900083B
:10289000013400087F2900087F2900087F290008EB
:1028A000F53000087F2900087F29000861370008FB
:1028B0007F290008000000007F29000800000000B8
:1028C0007F29000800000000ED3000080000000033
:1028D00000000000000000000000000000000000F8
:1028E00000000000000000007F2900080000000038
:1028F00000000000000000000000000000000000D8
:102900007F29000800000000000000000000000017
:1029100000000000000000000000000000000000B7
:1029200000000000000000000000000000000000A7
:102930000000000000000000000000000000000097
:102940000000000000000000000000007F290008D7
:10295000DFF80CD000F074FA00480047894E0008F8
:10296000701500200648804706480047FEE7FEE74E
:10297000FEE7FEE7FEE7FEE7FEE7FEE7FEE7FEE72F
:1029800049310008512900082DE9FE4F804681EAAF
:102990000300C00F0C46009021F0004123F00045D9
:1029A000B8EB0200A94105D24046214690461C469C
:1029B0000B46024623F00040104347D0270DC7F3D3
:1029C0000A00C3F30A510290401A019040286BDAC2
:1029D000C3F3130040F4801B0098924620B10023FB
:1029E000D2EB030A63EB0B0B01985946C0F140028E
:1029F000504600F097F906460D4650465946019A52
:102A000000F0AFF910EB08006141002487EA115291
:102A100084EAE7731A4340D0009A62B3019A012A0C
:102A20004FEA075215DC001B61EB02014FF0004238
:102A300002EA0752CDE90042001C41F580113246FE
:102A40002B4600F0AFF903B0BDE8F08F40462146B9
:102A5000F9E7001B61EB0201001C41F5801300182F
:102A60005B412018A2F5001747EB030140EAD5703F
:102A7000B6196D4111E06D084FEA360645EAC0759A
:102A80004FEA0752001B61EB0201001C41F5801167
:102A900049084FEA30000019514132462B4603B035
:102AA000BDE8F04F00F06FB900980122400000230C
:102AB000D0EB020263EBE073009821464FEAE0742A
:102AC000B8EB000061EB0401E9E783F000435BE74A
:102AD00081F0004158E72DE9FE4F81EA030404F03C
:102AE000004421F0004100944FF0000B23F000431C
:102AF00050EA01045ED052EA03045BD0C3F30A54E7
:102B0000C1F30A552C44A4F2F3340194A0FB0254FF
:102B1000C1F3130141F48011C3F3130343F4801391
:102B200001FB024400FB034E840A970A44EA8154E5
:102B300047EA8357A4FB076802958D0A05FB0785C2
:102B40004FEA932C04FB0C542705029D4FEA0658CC
:102B500047EA1637B5EB08056EEB070C870E920EA9
:102B600047EA811742EA8312A7FB0201B6EB0B0189
:102B700064EB00042B0D43EA0C335E1844EB1C504D
:102B8000DA465146E7FB0201C5F313044FEA0B3363
:102B900043EA14534FEA0432019C43EA0603A4F1CA
:102BA0000C040294009CCDE900B400F0FBF803B0E3
:102BB000BDE8F08F00200146F9E72DE9F04D81EAEC
:102BC000030404F0004B21F0004514464FF0000AC6
:102BD00023F0004150EA050220D054EA01021DD042
:102BE000C5F30A570246C5F31303C1F31300C1F33B
:102BF0000A5640F4801543F48013A7EB0608101B17
:102C0000D64608F2FD3873EB050002D308F101083F
:102C100001E092185B41B8F1000F03DA0020014691
:102C2000BDE8F08D00204FF48011064684460EE08A
:102C3000171B73EB050705D3121B63EB0503064354
:102C40004CEA010C49084FEA300092185B4150EA07
:102C50000107EDD152EA030012D082EA040083EAB0
:102C60000501084305D0101BAB4106D20122002309
:102C700006E000224FF0004302E06FF00102531023
:102C80001AEB06004CEB085110EB0A0041EB0B016C
:102C9000BDE8F04D00F077B80EB5C10F80EAE070E6
:102CA0000844CA07002140F233438DE80E000A466B
:102CB0000B4600F077F803B000BD70B5C1F30A52BF
:102CC00001F000450024C1F3130140F2FF3341F449
:102CD00080119A4201DA002070BD40F233439A42DB
:102CE000A2F2334203DC524200F02BF800E09040A5
:102CF0002C43F1D0404270BD30B50B460146002058
:102D00002022012409E021FA02F59D4205D303FAAD
:102D100002F5491B04FA02F52844151EA2F101022E
:102D2000F1DC30BD202A04DB203A00FA02F1002059
:102D300070479140C2F1200320FA03F319439040F9
:102D40007047202A04DB203A21FA02F00021704764
:102D500021FA02F3D040C2F1200291400843194603
:102D60007047202A06DBCB17203A41FA02F043EAEB
:102D7000E07306E041FA02F3D040C2F12002914034
:102D800008431946704710B5141E73F1000408DAA1
:102D9000401C41F1000192185B411A4301D120F01F
:102DA000010010BD2DE9F04D92469B4611B1B1FADC
:102DB00081F202E0B0FA80F220329046FFF7B2FFD3
:102DC00004460F4640EA0A0041EA0B0153465A46C0
:102DD000084313D0114653EA010019D0C8F140024C
:102DE0005046FFF7AEFF05460E465046594642464E
:102DF000FFF798FF084305D0012004E0204639463C
:102E0000BDE8F08D0020054346EAE0762C433743C9
:102E10000A986305E40AA0EB08000022FD0A44EAD0
:102E200047540A3002D500200146E9E70105101990
:102E30006941DDE9084500196941BDE8F04DA2E7A7
:102E4000064C074D06E0E06840F0010394E80700F7
:102E500098471034AC42F6D3FFF77EFD7467000844
:102E60009467000800BFFEE7704710B5012001F02D
:102E7000E1FA70B1002001F0F1FB01214FF0904028
:102E800001F02CFC012802D101F086F901E001F0EB
:102E9000B9F9012001F0C8FA10BD000010B580207A
:102EA00001F0C8FAB8B184480068012810D0802128
:102EB000824801F013FC30B90120814908600020EC
:102EC00001F06AF904E000207D49086001F09AF9F8
:102ED000802001F0A9FA4FF4807001F0ABFAC0B184
:102EE00077480068012810D04FF48071734801F0D2
:102EF000F5FB28B901207049086001F04DF904E0A4
:102F000000206D49086001F07DF94FF4807001F0F8
:102F10008BFA202001F08EFAB8B16A4800680128C7
:102F200010D02021654801F0D9FB30B90120664955
:102F30000860002001F046F904E0002062490860C2
:102F400001F082F9202001F06FFA402001F072FABE
:102F5000B0B15D48006801280FD04021574801F00A
:102F6000BDFB28B901205749086001F02BF904E0A6
:102F700000205449086001F067F9402001F054FA3C
:102F80004FF4007001F056FAD8B15048006801289B
:102F900013D04FF40071494801F0A0FB30B9012073
:102FA0004B490860002001F01DF906E00020484967
:102FB000086001F053FB01F051F94FF4007001F08B
:102FC00033FA4FF4806001F035FAC0B14048006830
:102FD000012810D04FF48061384801F07FFB28B9F8
:102FE00001203A49086001F0FDF804E0002037496B
:102FF000086001F033F94FF4806001F015FA4FF4E6
:10300000006001F017FA88B14FF400614FF0904072
:1030100001F064FB18B901202E49086002E000208D
:103020002C4908604FF4006001F0FEF94FF4805025
:1030300001F000FA88B14FF480514FF0904001F058
:103040004DFB18B901202449086002E00020224904
:1030500008604FF4805001F0E7F94FF4004001F0B0
:10306000E9F988B14FF400414FF0904001F036FB90
:1030700018B901201949086002E0002017490860CA
:103080004FF4004001F0D0F94FF4005001F0D2F9B4
:1030900080B14FF40051124801F020FB18B9012013
:1030A0001049086002E000200E4908604FF400500B
:1030B00001F0BAF910BD0000A4000020000400488F
:1030C000A0000020AC000020A8000020BC000020D0
:1030D000B8000020B0000020B4000020C000002094
:1030E00000080048C400002000BFFEE710B501F052
:1030F00063FB10BD10B501F0B5FB10BD00BFFEE7CE
:103100007047000010B5002807DA0A07140E054AB8
:1031100000F00F031B1FD45403E00A07130E024AEA
:10312000135410BD18ED00E000E400E07047704754
:1031300010B504480068401C0249086001F00AF913
:1031400010BD0000D000002008B57748C06900F02D
:103150000600062871D07448C069C0F340300028CA
:103160006BD0724870494860714848606F48886009
:103170006F4888600846006940F0200008610846F2
:10318000006940F04000086100BF6748C06800F077
:1031900001000028F9D16448006920F0200062494C
:1031A00008610846006940F0100008610846C069DF
:1031B00000F0060018B9A5205E49088008E05A48CA
:1031C000C06900F00600022802D1BB2059490880DE
:1031D0005548C069000A00F0DF005649891C088084
:1031E0005148C069C0F30740891C08804E48C06937
:1031F000000E891C08804C48006AC0B2891C0880F7
:103200004948006AC0F30720891C088000BF46486F
:10321000C06800F001000028F9D14348006920F09F
:103220001000414908610846006920F400700861F7
:103230000846006940F0800008613F48006840F49B
:1032400070003D4908603D48006840F001003B497E
:10325000086000BF3948006800F002000028F9D07B
:1032600000BF3648406840F0800034494860002084
:10327000009002E00098401C009000985028F9D37C
:103280002E48406840F090002C4948600020009093
:1032900002E00098401C009000985028F9D300BF2D
:1032A0002648406820F0030024494860084600682A
:1032B00023490840214908600846406821490840E0
:1032C0001E494860084640681F4908401B4948603D
:1032D0000846C06A1D4908401849C8620846006B84
:1032E00040F203118843154908630846006B20F437
:1032F000803008630846006B20F0004008630846F1
:10330000406B20F0010048630C48C030006820F496
:103310008030C1F8C000002088600849CC310860C6
:1033200002F0C0FD08BD00000020024023016745F7
:10333000AB89EFCD00F8FF1F88ED00E000100240E0
:10334000FFFFF2FE0C00FF08FFFFC277F0FFFF3F18
:1033500010B50421224803F0AAF801283ED1042127
:103360001F4803F0A1F81F480068012806D11E4835
:103370000068012832D102F0BDFC2FE01B48006834
:10338000012806D11A480068012827D102F0B2FCB2
:1033900024E01848C068012803D01648406A012874
:1033A0000ED11548006815490968884205DA1248A7
:1033B0000068401C1049086010E002F09BFC0DE022
:1033C0000D4800680D490968884205DD0A48006813
:1033D000401E0949086001E002F08CFC10BD0000AD
:1033E000002C0140B0000020AC000020B400002000
:1033F000A8000020E8000020240000201400002085
:1034000010B504210F4803F052F8012818D1042107
:103410000C4803F049F80C480068012806D10B4815
:10342000006801280CD102F075FC09E0084800682A
:10343000012805D107480068012801D102F06AFC83
:1034400010BD000000400140C0000020BC00002072
:10345000C4000020B800002010B50221480703F086
:1034600026F8012803D10221800703F01DF810BDC2
:1034700010B50221AF4803F01AF801282CD102211F
:10348000AC4803F011F8022000F058FCAA4800688C
:10349000AA490860AA480068012824D1A9484068C0
:1034A000012803D0A748406805281CD1A34800681C
:1034B000A549098888420ADDA4480068B0F5CC4FC8
:1034C00005DAA2480068A2490968884205DB00F0D5
:1034D00099FE00209F4908602AE19C480068401C32
:1034E0009A49086024E196480068012823D195484C
:1034F0004068022803D0934840680A281BD18F48AF
:10350000006895490988884209DA904800680028CF
:1035100005DD8E4800688E490968884205DC00F0A8
:1035200071FE00208B49086002E188480068401E57
:1035300086490860FCE08248006806281CD17F4864
:1035400000688149098888420ADD80480068B0F532
:10355000CC4F05DA7D4800687D490968884205DB63
:1035600000F050FE00207B490860E1E077480068E9
:10357000401C76490860DBE07148006805281BD1D3
:103580006E48006874490988884209DA6F48006803
:10359000002805DD6D4800686D490968884205DC32
:1035A00000F030FE00206B490860C1E06748006809
:1035B000401E66490860BBE06148006803281CD1D2
:1035C0005E4800686049098888420ADD5F480068F3
:1035D000B0F5CC4F05DA5D4800685D49096888425E
:1035E00005DB00F00FFE00205A490860A0E05748B4
:1035F0000068401C554908609AE051480068082856
:1036000020D15648006801281CD14C4800684E491A
:10361000098888420ADD4D480068B0F5CC4F05DACC
:103620004A4800684A490968884205DB00F0EAFD1B
:103630000020484908607BE044480068401C43493A
:10364000086075E03E48006808281ED143480068BD
:10365000D8B93A48006840490988884209DA3B48A5
:103660000068002805DD3948006839490968884242
:1036700005DC00F0C7FD00203649086058E03348FB
:103680000068401E3149086052E02D480068042857
:1036900003D02B480068072829D12C4800682C4902
:1036A0000968884205DC254800682B49098888425A
:1036B00005DC26480068401E2449086038E023489D
:1036C000006823490968884205DB1C4800681E49D8
:1036D0000988884205DB1D480068401C1B490860BA
:1036E00026E000F08FFD00201A49086020E0144811
:1036F000006863281CD1154800681549096888428C
:1037000005DD12480068401E1049086010E00F48AF
:1037100000680F490968884205DA0C480068401CB7
:103720000A49086004E000F06DFD002009490860C6
:1037300010BD0000000400404C2401402C0000207B
:103740004000002058010020300000202000002010
:103750001000002078000020320000209800002097
:1037600010B51A491A4802F094FFA0B1184802F0A7
:1037700045FFC1B217480488601C164A10801648DD
:1037800001551046008815490978884203D1052162
:103790000F4802F071FF12490D4802F07AFF98B10C
:1037A00010480478601C0F4A10700F48015D0848EB
:1037B00002F029FF0B4800780C490978884203D1B0
:1037C0000721034802F058FF10BD0000050005075F
:1037D000003801400E000020070000200D000020EE
:1037E0000700070706000020000000200500002059
:1037F00000BFFEE70FB4054B10B503A9044A0298B9
:1038000000F018F810BC5DF814FB00003546000805
:10381000E400002002E008C8121F08C1002AFAD103
:1038200070477047002001E001C1121F002AFBD140
:10383000704700002DE9FF4F8BB0884605460026F3
:1038400006E025280BD0DDE90D1290476D1C761C93
:1038500028780028F5D10FB03046BDE8F08F00245D
:10386000A146A2460122AE4900E0044315F8013FFB
:10387000203B02FA03F00842F7D128782A2810D01A
:103880006FF02F022878A0F13001092915D809EB33
:10389000890102EB410144F0020400EB01096D1CB7
:1038A000F0E758F8041B5FEA010903D544F400541B
:1038B000C9F1000944F002046D1C28782E2817D1A4
:1038C00015F8010F44F004042A280ED06FF02F02DF
:1038D0002878A0F1300109290AD80AEB8A0102EB05
:1038E000410100EB010A6D1CF2E758F804AB6D1CB6
:1038F00028786C280FD006DC4C2817D068280DD00B
:103900006A2814D104E0742810D07A280FD10DE071
:1039100044F400140AE044F4801401E044F4401438
:103920006978814202D104F580146D1C6D1C2878E1
:10393000692865D006DC00288DD0632827D064284C
:1039400006D15DE06E2808D073282AD0752877D07C
:10395000DDE90D129047761CE0E0C4F30250022826
:1039600009D003280DD0D8F8001004280DD00E601F
:1039700008F10408D2E0D8F80010F217C1E900629B
:10398000F6E7D8F800100E80F2E70E70F0E718F8AE
:10399000041B8DF8001000208DF80100EB4601207B
:1039A00003E058F804BB4FF0FF3061074FF0000709
:1039B00001D40AE07F1C57450DDA8742FADB1BF879
:1039C00007100029F6D106E07F1C8742FCDB1BF8BC
:1039D00007100029F8D1DDE90D23A9EB0700814686
:1039E000214600F0B1F83044C61904E0DDE90D12BB
:1039F0001BF8010B90477F1EF8D22146484688E00D
:103A000058F8040BC4F302514FF00A0B032900D1FC
:103A100000B2042900D140B2002802DA40422D2130
:103A200002E0210505D52B218DF82410012104E0A9
:103A300006E0E10710D02021F6E708AF089113E077
:103A400058F8040BC4F302514FF00A0B032900D1BC
:103A500080B2042900D1C0B20021EEE75946FFF739
:103A60004BF9303107F8011D0028F7D1ADEB070005
:103A700000F1200B600702D524F4803401E04FF000
:103A8000010ADA4502DDAAEB0B0000E000208246C5
:103A900000EB0B0108980144A9EB01000A90E00338
:103AA00006D4DDE90D2321460A9800F04DF80644BE
:103AB0004FF0000908E009A911F80900DDE90D122D
:103AC000904709F10109761C08998945F3DBE00369
:103AD0000CD5DDE90D2321460A9800F035F806449F
:103AE00004E0DDE90D1230209047761CBAF10001A8
:103AF000AAF1010AF5DC05E0DDE90D1217F8010B6A
:103B00009047761CBBF10001ABF1010BF4DC0A9885
:103B10002146DDE90D2300F005F806446D1C97E60B
:103B2000092801002DE9F041044600251E461746EC
:103B3000880404D405E039462020B0476D1C641E7B
:103B4000F9D52846BDE8F0812DE9F041044600256D
:103B50001E469046C80301D5302700E02027880480
:103B600004D505E041463846B0476D1C641EF9D5C2
:103B70002846BDE8F08100000D48006840F00800CC
:103B80000B49086000BF0A48006800F008000028E0
:103B9000F9D10748006840F004000549086000BFFB
:103BA0000348006800F004000028F9D170470000C5
:103BB0000824014010B5012802D0022825D110E0C8
:103BC000134A126822F47002114B1A601A461268E6
:103BD0004B1E4FF4700404EA03531A430C4B1A6053
:103BE00014E00B4A0C32126822F44012084B0C33DA
:103BF0001A601A4612684B1E4FF4401404EA03532D
:103C00001A43034B0C331A6000E000BF00BF10BD25
:103C10002C24014010B50121022000F055F94FF489
:103C20006021012000F06AF8002000F01DF8012159
:103C30000846FFF7BFFF05220121002000F0C4F86D
:103C40000121084600F030F80C228021002000F00D
:103C500091F800F0AFF800F019F8012000F070FBC7
:103C6000FFF78AFF10BD000030B10749096841F431
:103C70000061054A116005E00349096821F400610B
:103C8000014A11607047000008240140054800689F
:103C900000F0010028B90348006840F00100014924
:103CA000086070470824014091B100F001022AB178
:103CB000114A126842F480120F4B1A6000F002029F
:103CC000C2B10D4A126842F400420B4B1A6011E077
:103CD00000F001022AB1084A126822F48012064B51
:103CE0001A6000F002022AB1034A126822F400426C
:103CF000014B1A607047000008240140012802D0DF
:103D0000022816D10AE00C4A126822F460220A4BFB
:103D10001A601A4612680A431A600BE0064A1268D3
:103D200022F4E042044B1A601A4612680A431A60F1
:103D300000E000BF00BF7047082401400249096845
:103D40008143014A116070470024014010B50223ED
:103D5000012203214FF0904000F0C8FC10BD10B5C7
:103D600001F08AFFFFF7F2FFFFF754FF012000F098
:103D700095F810BD10B5012806D10D4B1B6843F412
:103D800000730B4C236005E0094B1B6823F40073A0
:103D9000074C2360064B1B6823F4FE73044C23601E
:103DA00023461B6841EA02042343014C236010BDF3
:103DB000802401400348006840F001000149086088
:103DC000704700008024014070B5144606280ED2CA
:103DD000314D2A6800EB80061F25B540AA4300EB51
:103DE000800501FA05F52A432B4D2A602AE00C28AC
:103DF00012D2294D2D1F2A68851F05EB85061F2528
:103E0000B540AA43851F05EB850501FA05F52A4350
:103E1000214D2D1F2A6015E0102813D21E4D083D9C
:103E20002A68A0F10C0505EB85061F25B540AA43BD
:103E3000A0F10C0505EB850501FA05F52A43164DA1
:103E4000083D2A600A2910D2134D243D2B6801EB4E
:103E500041060725B540AB4301EB410504FA05F5E2
:103E60002B430D4D243D2B6015E0132913D20A4D31
:103E7000283D2B68A1F10A0505EB45060725B5404D
:103E8000AB43A1F10A0505EB450504FA05F52B4303
:103E9000014D283D2B6070BD3424014000F001012C
:103EA00029B10849096841F48001064A116000F00F
:103EB000020129B10349096841F40011014A116066
:103EC0007047000008240140E9B100F480722AB173
:103ED0001C4A126842F480721A4B1A6000F4806225
:103EE0002AB1184A126842F48062164B1A6000F038
:103EF00002022AB3134A121D126842F00202114B49
:103F00001B1D1A601CE000F480722AB10D4A126871
:103F100022F480720B4B1A6000F480622AB1094AC5
:103F2000126822F48062074B1A6000F002023AB174
:103F3000044A121D126822F00202024B1B1D1A6075
:103F4000704700000424014010B5012204214FF005
:103F5000904000F0CDF810BD10B5012204214FF0C3
:103F6000904000F0C5F810BD10B5012211034FF0CC
:103F7000904000F0BDF810BD10B5044634B90022E1
:103F800040214FF0904000F0B3F805E001224021BD
:103F90004FF0904000F0ACF810BD000010B50446A2
:103FA0002CB900220221054800F0A2F804E0012209
:103FB0000221024800F09CF810BD000000040048F7
:103FC00010B5044634B900224FF48041044800F093
:103FD0008FF804E001229103014800F089F810BD38
:103FE0000004004810B5044634B1002220214FF0EF
:103FF000904000F07DF805E0012220214FF0904034
:1040000000F076F810BD000010B504462CB1002277
:104010000421054800F06CF804E001220421024864
:1040200000F066F810BD00000004004810B504461A
:1040300034B100224FF40051044800F059F804E074
:1040400001225103014800F053F810BD000400485C
:1040500010B540F2115001F01DFE4FF480530022C4
:1040600001214FF0904000F041FB4FF480530322B8
:1040700000214FF0904000F060FB4FF400630022FD
:1040800001214FF0904000F031FB4FF40063032218
:1040900000214FF0904000F050FB2023002201212E
:1040A0004FF0904000F022FB2023032200214FF02C
:1040B000904000F042FB1023002201214FF090407D
:1040C00000F014FB1023032200214FF0904000F079
:1040D00034FB4023002201214FF0904000F006FB0A
:1040E0004023032200214FF0904000F026FB10BD3A
:1040F00070B505460E46144624B1012C08D0022C9A
:1041000012D10BE000223146284600F0E2FA0BE023
:1041100001223146284600F0DCFA05E00122314652
:10412000284600F0D6FA00BF00BF70BD10B50446A7
:1041300034B1002210214FF09040FFF7D9FF05E085
:10414000012210214FF09040FFF7D2FF10BD000078
:1041500010B504462CB1002208210548FFF7C8FF1E
:1041600004E0012208210248FFF7C2FF10BD000051
:104170000004004810B5044634B100224FF48051C9
:104180000448FFF7B5FF04E0012211030148FFF7DF
:10419000AFFF10BD0004004810B5044601200849D7
:1041A0000860FFF7E1FE2046FFF7E6FE0020FFF77C
:1041B000BDFF0120FFF716FF01F028FF10BD000032
:1041C0007800002010B50446FFF7BEFE2046FFF73A
:1041D000E5FE0020FFF7BCFF0120FFF715FF01F00F
:1041E0008DFE10BD10B50446FFF7B6FE2046FFF762
:1041F000E7FE0020FFF7BEFF0120FFF717FF01F0E9
:104200008DFE10BD10B50A480068012804D1094888
:10421000016809A0FFF7EEFA01F000FF002009494C
:104220000860FFF7DFFE0120FFF780FF10BD0000F0
:1042300080000020D000002074696D653A25640A72
:10424000000000007800002010B501F05FFE0020A3
:10425000FFF7DAFE0120FFF77BFF10BD10B501F07C
:1042600065FE0020FFF7E2FE0120FFF783FF10BD8F
:1042700008B50020FFF790FF4FF4966000F060F85B
:10428000FFF7C0FF6320214908604FF4CC4020496C
:1042900008604FF4967000F009FD4FF47A7000F05A
:1042A0004FF80220FFF74AFD1A4800681A490880B3
:1042B0000846018819A0FFF79DFA4FF4CC40144935
:1042C000086000F0F3FC40F2DC5000F039F8022006
:1042D000FFF734FD0F48006813490880084601883D
:1042E00012A0FFF787FA012013490860002008494F
:1042F0000860114800680090074803880A4802884F
:10430000084601680D4800F059F908BD400000203A
:10431000200000204C24014030000020766D696EA2
:10432000313A2025640D0A0032000020766D617854
:10433000313A2025640D0A008400002040E0000886
:104340000349086000BF024909680029FBD1704792
:10435000D40000200448006820B103480068401ED3
:104360000149086070470000D400002010B52D4BB3
:104370001B6883432B4C2360231D1B688343241D30
:104380002360231D1B688343241D2360231D1B689A
:104390008343241D236011B101290ED105E0214B77
:1043A0001B6803431F4C236008E01E4B1B1D1B684A
:1043B00003431C4C241D236000E000BF00BF32B14A
:1043C000012A11D0022A1CD0032A27D127E0154B3D
:1043D00008331B680343134C08342360231D1B68F8
:1043E0008343241D23601BE00E4B08331B6883436B
:1043F0000C4C08342360231D1B680343241D2360D9
:104400000EE0084B08331B680343064C0834236056
:10441000231D1B680343241D236001E000BF00BF70
:1044200000BF10BD00040140014908607047000052
:104430001404014001460748006800EA01020548EB
:104440001438006800EA010312B10BB10120704773
:104450000020FCE7140401400149C86070470000D7
:104460000020024070B504460D464FF4702000F065
:104470004AF806468EB90A48006940F0010008492A
:10448000086125804FF4702000F03DF8064604488E
:10449000006920F0010002490861304670BD00004B
:1044A000002002400348006940F080000149086193
:1044B000704700000020024030B504464FF47020E1
:1044C00000F021F80546B5B90C48006940F002003B
:1044D0000A49086108464461006940F040000861EB
:1044E0004FF4702000F00FF805460448006920F0F2
:1044F000020002490861284630BD00000020024049
:1045000001460868704700B50346012200BF00F06D
:104510000BF802465B1E012A01D1002BF7D1012ABC
:1045200000D10422104600BD00200A49C96801F0EC
:10453000010109B101200CE00649C96801F0100130
:1045400009B1032005E00349C96801F0040101B184
:1045500002207047002002400548006900F08000FA
:1045600020B1044802494860034848607047000091
:104570000020024023016745AB89EFCD70B50446AA
:104580000D464FF47020FFF7BEFF06468EB90A486D
:10459000006940F001000849086125604FF470206F
:1045A000FFF7B1FF06460448006920F00100024908
:1045B0000861304670BD0000002002402DE9F04740
:1045C00004460E4617469846DDF820902546FFF72C
:1045D000C3FF3420FFF740FF1548FFF76DFF286841
:1045E000B0F1FF3F03D06FF00F00BDE8F087314618
:1045F0002046FFF7C3FF394604F12000FFF7BEFF56
:10460000414604F14000FFF7B9FF494604F160005C
:10461000FFF7B4FF2868B04202D06FF00E00E4E765
:104620003420FFF719FFFFF73DFF2868DDE70000A2
:1046300000E0000870B504460D46E1B2064801F0FE
:10464000E2FF00BF40F20771034802F006F80028BD
:10465000F8D0204670BD000000380140034951F8F1
:104660002010034A52F82020D16270475467000896
:104670004C670008F0B503461C6A5D6A00200DE037
:104680000126864016403EB187000F26BE40B44347
:10469000860001FA06F63443461CB0B20828EFD370
:1046A000082011E00126864016405EB1A0F1080600
:1046B000B7000F26BE40B543A0F10806B60001FAC8
:1046C00006F63543461CB0B21028EBD31C625D627F
:1046D000F0BD0AB1816100E0816270470246106955
:1046E000084008B1012070470020FCE7F0B50446FF
:1046F0000D4616462168E268002019E00127874030
:104700001F409FB14FEA400C032707FA0CF7B9434B
:10471000470005FA07F739434FEA400C032707FA29
:104720000CF7BA43470006FA07F73A43471CB8B2FA
:104730001028E3D32160E260F0BDF0B504460E46D8
:10474000012E03D167681F43676002E067689F43DB
:104750006760A1684FF6FF77BA4216D1E56B00207B
:104760000EE0012787401F4047B14FEA400C032766
:1047700007FA0CF73943012787403D43471CB8B27D
:104780001028EED3A160E56314E000200FE00127BC
:1047900087401F404FB14FEA400C032707FA0CF740
:1047A000B943470002FA07F73943471CB8B210284B
:1047B000EDD3A160F0BD000010B52149214800F003
:1047C00047FA30B11E491F4800F02CFA01201E495B
:1047D00008701E491B4800F03BFA18B11B491948E4
:1047E00000F020FA1A49174800F032FA18B11849B7
:1047F000144800F017FA1749124800F029FA18B1C6
:104800001449104800F00EFA13490E4800F020FA3F
:1048100018B111490B4800F005FA1049094800F099
:1048200017FA18B10D49074800F0FCF90C49054882
:1048300000F00EFA18B10A49024800F0F3F910BD71
:1048400008010A05005800405200002008010F0529
:1048500008010E0508010B050801090508010805F6
:1048600008010C0510B52DED0A8B5449544800F091
:10487000EFF930B16FF00102E421514800F078FA0D
:1048800098E050494E4800F0E3F938B100204E4915
:1048900008604C494A4800F0C5F98BE04B4948484C
:1048A00000F0D6F9002852D049480088012805D1E7
:1048B00048480179424800F09FF943E044480088A5
:1048C000032805D14348017B3D4800F095F939E0C4
:1048D0003F480088092804D10121394800F08CF9AB
:1048E00030E03D490968C1F5CC40FEF7D5F941EC0F
:1048F0001C0B9FED3A0B53EC102BFEF7ECF841EC40
:104900001B0B9FED380B53EC102BFEF756F941ECC7
:104910001A0B9FED360B53EC102BFEF7DCF841EC35
:10492000190B9FED340B53EC102BFEF72DF841ECD7
:10493000180BFEF7C2F93149086008460178204893
:1049400000F05AF921491E4800F06CF932E02C4978
:104950001B4800F07DF968B1194800F049F91C497D
:10496000194A126821F8120017480068401C1649BD
:1049700008601FE02349124800F06AF9D0B11448DA
:104980000088BB2802D101201F49086010484088D8
:104990000F49098800EB01211C480068401C1B4A94
:1049A00010601B4A42F8201001201A490870044880
:1049B00000F025F9BDEC0A8B10BD000009010005CF
:1049C0000058004009010105DC000020090107052D
:1049D00038010020580100202000002000000000C5
:1049E0000000F03F000000000080D94000000000FF
:1049F000004065400000000000804B40880000201F
:104A000009010605090104059C000020740000202E
:104A1000A80100205200002010B540F2165001F00D
:104A200039F9402200211048FFF724FE802200219E
:104A30000D48FFF71FFE4023002202210A48FFF71E
:104A400055FE4023032201210748FFF776FE80230D
:104A5000002202210448FFF749FE8023032201219E
:104A60000148FFF76AFE10BD001400480A46002105
:104A7000016821F480611143016070472DE9F05F06
:104A800004460E469246022000F0A8FF074646481C
:104A9000B7FBF0F8B8F13F0F01D34FF03F08D4F85F
:104AA00004B02BF03F0B4BEA080BC4F804B03F48AE
:104AB00086421ED83C48B7FBF0F000F10109B9F17D
:104AC0003F0F02D33F20206207E0B9F1020F02D866
:104AD0000220206201E0C4F820907000B7FBF0F5DE
:104AE000042D00D20425E069C5F30B010843E06101
:104AF00058E02F4886422CD84FF4967008FB00F0FF
:104B00004FF47A71B0FBF1F0401C2062BAF1000F53
:104B100008D106EB4600B7FBF0F5E06920F48040D1
:104B2000E06109E006EBC60000EB0610B7FBF0F50C
:104B3000E06940F48040E061C5F30B0008B945F03E
:104B40000105E06940F40040E061E0692843E0616C
:104B500028E0C8EB0810C0004FF47A71B0FBF1F008
:104B6000401C2062BAF1000F08D106EB4600B7FBEB
:104B7000F0F5E06920F48040E06109E006EBC60052
:104B800000EB0610B7FBF0F5E06940F48040E0610F
:104B9000E06940F40040E061E0692843E061012001
:104BA000C4F89000BDE8F09F40420F00A0860100CD
:104BB000801A060010B540F2167001F06BF8002262
:104BC00009490A48FFF75AFFE42300221146074823
:104BD00000F0D8F8054800F012F84FF4806103485F
:104BE000FFF744FF10BD0000A08601000058004000
:104BF00001460869C0B27047CAB2026170470168D5
:104C000041F001010160704710B500EB911212688C
:104C100001F01F040123A3401A4300EB91131A6013
:104C200010BD000010B5094A914202D14269826963
:104C30000AE000EB91521268C1F304440123A3403F
:104C40009A4300EB91531A6010BD00000901010561
:104C5000F0B5024600230024506800F48065C1F3DB
:104C60008910105801F01F070126BE4000EA060314
:104C700002EB91500068C1F304470126BE4000EAF0
:104C800006040848814202D00748814204D113B18A
:104C90000DB1012300E0002314B10BB10120F0BDE0
:104CA0000020FCE7090106050901070510B50446C7
:104CB0000A480068001B0A49086008460068002886
:104CC00001DA00200860064802680448016805A06F
:104CD000FEF790FD0120FFF75FFA10BD20000020D5
:104CE000100000206375725F737465703A25642C40
:104CF00070776D5F7461726765745F737465703A25
:104D000025640D0A0000000010B504460C48006838
:104D100020440C490860084600680B49096888422D
:104D200003DD09480068074908600648026804482E
:104D3000016806A0FEF75EFD0020FFF72DFA10BD0A
:104D40002000002010000020406700086375725F9B
:104D5000737465703A25642C70776D5F7461726747
:104D600065745F737465703A25640D0A0000000075
:104D700012F1020F02D121F0010101E041F0010125
:104D80000161704730B50C460021016821F0020135
:104D900021430160C3F3090342EA0305856030BD86
:104DA00010B54FF4C06000F069FD02220021182008
:104DB00000F00EFD01220021222000F009FD10BDAF
:104DC00010B5FFF71FFA10BD10B540F2125000F0F9
:104DD00061FF4FF4C06000F05DFF802301220021DD
:104DE0001648FFF783FC00220121072000F0F0FCA9
:104DF0000721012000F09EFF022200218020FFF702
:104E0000B5FA8020FFF710FB4FF4807301220021D8
:104E10000A48FFF76BFC00220121072000F0D8FCB4
:104E20000821012000F086FF02220021D001FFF7B7
:104E30009DFA4FF48070FFF7F7FA10BD00040048A8
:104E400010B508A0FEF7D6FC01F0C6F800F0B5FCDE
:104E500001F074F808A0FEF7CDFCFFF7F9F8FFF7B2
:104E6000B3FF10BD636F6E66696775726520544944
:104E70004D4552320D0A0000696E69742061773821
:104E80003634360D0A0000002DED0C8B82B0F3484D
:104E9000F349086000F08AFC01F03EFB01F014FBCE
:104EA000F0A0FEF7A7FC01F001F8F2A0FEF7A2FCCB
:104EB000FEF755FFFFF7C4FFF3A0FEF79BFCF5A03C
:104EC000FEF798FCFFF7A8FDF7A0FEF793FCFFF7AD
:104ED00071FEFFF765FF0020F6490880488008460C
:104EE000F54908600120F5490880F549088000204F
:104EF000F44908704FF48471F348FFF785FE40F2DF
:104F00000911F148FFF780FE4FF48571EE48FFF775
:104F10007BFEEE480168EEA0FEF76CFCEF484168AE
:104F2000EFA0FEF767FCF248FFF7EAFAF1490860E4
:104F300008460068012812D1ED486038FFF7E0FA12
:104F4000ED490860EA484038FFF7DAFAEB49088093
:104F5000E7482038FFF7D4FAE949088001E0FFF775
:104F600087F9C2E3E7480068E749096888427DDCC1
:104F7000E6A0FEF73FFCE0490968C1F5CC40FDF72B
:104F80008BFE41EC1D0B9FEDE90B53EC102BFDF755
:104F9000A2FD41EC1C0B9FEDE70B53EC102BFDF732
:104FA0000CFE41EC1B0B9FEDE50B53EC102BFDF7BA
:104FB00092FD41EC1A0B9FEDE30B53EC102BFDF728
:104FC0008AFD41EC190B9FEDE10B53EC102BFDF723
:104FD000DBFC41EC180BFDF770FEDE49086008466B
:104FE0000168DDA0FEF706FC0220FEF7A7FEDE4802
:104FF0000068DE490880C1490988C14A1288881AB8
:10500000FDF74AFE41EC1A0BD8490988BC4A1288C0
:10501000881AFDF741FE41EC1D0B9FEDC40B53ECCC
:10502000102BFDF758FD41EC1C0B9FEDD10B53EC01
:10503000102BFDF750FD41EC1B0B53EC1A2BFDF729
:10504000BCFD41EC190B9FEDC10B53EC102BFDF790
:105050009BFC41EC180BFDF730FEC7490860084681
:105060000168C6A0FEF7C6FBC04800E03CE301882B
:10507000C5A0FEF7BFFBA0480168C7A0FEF7BAFBBA
:105080009E480188C8A0FEF7B5FB9D480188C9A0CD
:10509000FEF7B0FBB8480068AE490968401A14280A
:1050A00007DCB5480068AB490968401A10F1140FD5
:1050B00001DAFFF7DDF89448026892480168C0A061
:1050C000FEF798FBC2488F49096850F8210000128A
:1050D000C0490860BE488B4A126850F82210BEA032
:1050E000FEF788FBBB480168BEA0FEF783FBC04803
:1050F0000168C0A0FEF77EFBB6480068142814DAE9
:10510000B4480068002810DBB1487E49096850F8AF
:105110002100C0B2B949AF4A126841F8220079486B
:105120000068401C774908601AE0AA480068AA286D
:1051300010D1A7487349096850F82100C1B2AF489F
:10514000A44A126840F822106E480068401C6D495D
:10515000086005E06B480068401C6A490860C4E2CA
:10516000A6484168A6A0FEF745FBA448C168A7A0D1
:10517000FEF740FBA1484169A7A0FEF73BFB9F4813
:105180008169A8A0FEF736FB9C48016AA8A0FEF73B
:1051900031FB9A48416AA9A0FEF72CFB9748816A27
:1051A000A6A0FEF727FB43480188A7A0FEF722FB35
:1051B0004048408820B13F484188AEA0FEF71AFB26
:1051C00033A0FEF717FB83480068BB2802D10020FC
:1051D000AE490860AD480068012800D185E24A4820
:1051E0000068B0F57A7F1ADB002046490860401E4F
:1051F000454908600020A64908600AE0002174487B
:10520000A34A126840F82210A1480068401CA04937
:1052100008609F48006840F2F2318842EEDB6D483A
:105220000068012817D175484068012807D14FF45C
:105230009670FFF769FD97A0FEF7DCFA41E26F4830
:105240004068022808D14FF49670FFF72FFD94A014
:10525000FEF7D0FA35E24DE128E100000028000811
:1052600008ED00E0696E6974207374617274313105
:10527000310D0A00696E6974206B657920616E6476
:10528000204C45440D0A0000313131313131310DAE
:105290000A000000696332206770696F20636F6ED7
:1052A0006669670A0000000069326320636F6E66FA
:1052B00069670A00380100204C00002050000020DF
:1052C000600000205200002000580040E000002054
:1052D000636C6F636B3A25640D0A00000010024096
:1052E000726375206366673A25640D0A000000004A
:1052F000A0E00008840000202000002032000020F0
:1053000030000020700000207400002068616C6C88
:105310002069732063616C6962726174696F6E6980
:105320006564202121210D0A00000000000000001A
:105330000000F03F000000000080D94000000000A5
:105340000040554000000000000000400000000048
:1053500000804B40880000206E6F7720706F7320B4
:105360003A25640D0A0000004C2401402C00002066
:1053700000000000004065408C0000207620706F27
:1053800073203A25640D0A00762076616C75653AC3
:1053900025640D0A000000006375725F7374657008
:1053A0003A2025640D0A000076206D61783A256464
:1053B0000D0A000076206D696E3A25640D0A000022
:1053C00068683A25642074743A25640D0A00000068
:1053D000A801002040000020715B68685D203A252C
:1053E000640D0A00726567203A25640D0A0000000A
:1053F000DC0000206B203A25640D0A0058010020D3
:10540000726567315F763A25640D0A00726567330D
:105410005F763A25640D0A00726567355F763A2536
:10542000640D0A00726567365F763A25640D0A00DE
:10543000726567385F763A25640D0A0072656739D0
:105440005F763A25640D0A005468652076616C75B4
:1054500065206F6620726563656976652072656791
:1054600020616464726573732069733A20256864EF
:105470000A000000746865207265672076616C75AB
:10548000652069733A202568640D0A009C0000209D
:105490004800002066726F6E74203330300A0000BE
:1054A0006261636B203330300A0000008F4840682F
:1054B000052807D141F28830FFF726FC8CA0FEF7C3
:1054C00099F9FEE0894840680A2807D141F28830FE
:1054D000FFF7ECFB89A0FEF78DF9F2E08348406806
:1054E0000121B1EB201FECD1FFF76AFC86A0FEF78B
:1054F00081F9E6E0864800680228E2D08448006826
:10550000032813D10120834908608348016883A0E0
:10551000FEF770F94FF4CC40FFF7F6FB4FF47A70CA
:10552000FEF70EFF00207B490860CAE0784800685B
:10553000042833D100207C49086029E07B480068BA
:10554000012800D129E04FF4CC40FFF7DDFB4FF4F8
:105550007A70FEF7F5FEFEF755FE4FF4CC40FFF7EC
:10556000A5FB4FF47A70FEF7EBFEFEF74BFE6E489C
:1055700000680A2190FBF1F201FB120018B942F217
:105580001070FEF7DDFE68480068401C6649086040
:105590006548006866498842D0DB92E05C48006854
:1055A000052804D14FF4CC40FFF780FB89E0584830
:1055B0000068062804D14FF4CC40FFF7A5FB80E03B
:1055C00053480068072802D1FEF752FE79E05048A0
:1055D0000068082850D15748FEF792FF0446434917
:1055E000096AC1F1E100FDF757FB41EC1B0B1FED10
:1055F000B10B53EC102BFDF76EFA41EC1A0B1FEDBB
:10560000A40B53EC102BFDF7D8FA41EC190B1FED4E
:10561000B70B53EC102BFDF75EFA41EC180BFDF7BE
:105620004CFB0546294644A0FEF7E4F8214646A077
:10563000FEF7E0F8AC420BDA2E1B01204749086068
:105640003046FFF761FB314645A0FEF7D3F812E084
:10565000AC420BDD661B0020404908603046FFF776
:1056600025FB314642A0FEF7C5F804E0FFF7A8FB92
:1056700043A0FEF7BFF824E025480068AA2819D106
:10568000FEF76AFF4048FEF717FFAA213F48FEF7E2
:10569000E9FE00BFBFF34F8F3D48006800F4E060B3
:1056A0003C490843001D3A490860BFF34F8F00BFD3
:1056B00000BFFEE716480068BB2802D100201B4946
:1056C00008604FF47A70FEF73BFE334800680090A4
:1056D0003248038832480288324801681548FEF78C
:1056E0006DFF00203049087000BF3BE458010020E6
:1056F00066726F6E7420353030300A006261636B01
:1057000020353030300A000073746F700A000000DA
:105710004000002080000020D000002074696D65EA
:105720003A25640A00000000440000209C0000208C
:10573000E09F020040E000087461725F737465705E
:10574000203A25640A0000006970645F7072657316
:10575000746570203A25640A00000000980000205B
:1057600066726F6E7420737465703A25640A000067
:105770006261636B20737465703A25640A000000EF
:1057800073746F70310A000000FC0008FEFF00080F
:105790000CED00E00000FA0584000020300000203D
:1057A00032000020200000205200002010B500220E
:1057B00011461B2000F00CF810BD10B54FF4C0606E
:1057C00000F05CF801221146102000F001F810BD35
:1057D0002DE9F04103460D46164600240027A04659
:1057E0002448006800F4E060B0F5A06F15D006DC36
:1057F000B0F5407F18D0B0F5806F19D110E0B0F54A
:10580000C06F06D0B0F5E06F12D100274FF004084A
:1058100015E001274FF0030811E00227B8460EE01B
:1058200003274FF001080AE004274FF0000806E0C4
:105830004FF4A06000F022F80227B84600BF00BF76
:10584000C7F1040005FA00F4C8F104010F20C840B4
:105850003040044324010848C45403F01F010120D0
:1058600088405911890001F1E021C1F80001BDE82B
:10587000F08100000CED00E000E400E0024901438B
:10588000024A1160704700000000FA050CED00E0CC
:105890005049496821F440414E4A51601146096B14
:1058A0004D4A11404B4A11630A2871D2DFE800F0DB
:1058B00005111D273642535F717D4649096B21F45E
:1058C0008031444A11631146096B21F480711163E0
:1058D0007DE04049096B41F480313E4A1163114635
:1058E000096B21F48071116371E03A494968394AC2
:1058F00051601146096B41F48071116367E03549CD
:105900004968344A51601146096B41F00041116306
:105910001146096B41F48071116358E02D494968C3
:1059200041F480412B4A51601146096B41F480716A
:1059300011634CE02749496841F48041254A516090
:105940001146096B41F0004111631146096B41F4A6
:10595000807111633BE01F49496841F400411D4AD1
:1059600051601146096B41F4807111632FE01949B0
:10597000496841F40041174A51601146096B41F0F2
:10598000004111631146096B41F4807111631EE0FF
:105990001CE01049496841F440410E4A51601146EB
:1059A000096B41F48071116311E00A49496841F4BF
:1059B0004041084A51601146096B41F000411163B2
:1059C0001146096B41F48071116300E000BF00BF14
:1059D0007047000000100240FFFEFE7F2DE9F04FEF
:1059E00092B0844600201190109000240F90002562
:1059F00000210E9000230D900C900B9000220026A9
:105A000000270A90099008908046814690A090E86F
:105A1000004CC068CDE905BECDF810A007900FF28C
:105A2000342ADAE9000ACDE9020A0FF2282ADAE973
:105A3000000ACDE9000A8A484068C0F3810011904D
:105A4000119820B1012804D0022847D103E0854DE8
:105A500046E0844D44E082484068C0F38342804879
:105A60004068C0F3C0667E48C06AC70F0EB907B968
:105A7000921C012E01D107B9113216B9012F00D1A4
:105A80002132012E02D1012F00D1313274484068F9
:105A9000C0F300400A907248C06AC0F38070099059
:105AA0000A98B8B16E48C06A00F00F00401C089018
:105AB000099838B9DFF8ACA10898BAFBF0F000FB00
:105AC00002F50AE0DFF8A0A10898BAFBF0F000FBAD
:105AD00002F502E0654802FB00F501E0614D00BF00
:105AE00000BF5F484068C0F3031804A810F808908E
:105AF00025FA09F15A484068C0F3022802A810F8B4
:105B0000089021FA09F00E9055484068C0F3C22869
:105B10001DF8089021FA09F3BCF1070F75D2DFE8F0
:105B20000CF00406080B0D5D6D000F958BE00F91D6
:105B300089E00E980F9086E00F9384E04848006B50
:105B400000F48070B0F5807F0CD04548006B00F405
:105B50008030B0F5803F02D045480D903BE045488D
:105B60000D9038E03E484068C0F3813010903C48CA
:105B7000006BC40F109830B101280DD0022814D04A
:105B8000032826D11CE014B958080D9003E0032027
:105B9000B1FBF0F00D901DE014B998080D9003E0F2
:105BA0000520B1FBF0F00D9014E024B90620B3FB02
:105BB000F0F00D9003E00720B1FBF0F00D9009E04C
:105BC00014B9D8080D9003E00920B1FBF0F00D9056
:105BD00000E000BF00BF0D980F9034E02048006B3C
:105BE00000F04000402803D048F212000C9002E080
:105BF0004FF400400C900C980F9024E01848006B74
:105C000000F0030010B90B9319E01BE01448006B7F
:105C100000F00300012801D10B9510E01048006B43
:105C200000F00300022802D180030B9007E00C482B
:105C3000006B00F00300032801D10A480B900B9879
:105C40000F9000E000BF00BF0F9812B0BDE8F08FCA
:105C5000000000000000000001020304060708091C
:105C60000010024000127A00006CDC0200093D00C6
:105C7000809FD500003FAB0110B540F2115000F0FD
:105C800009F840F2096000F005F80620FFF700FE71
:105C900010BD0000064A02EB9011096800F01F03D6
:105CA00001229A401143024B03EB9012116070479E
:105CB00000100240064A02EB9011096800F01F0331
:105CC00001229A409143024B03EB901211607047FE
:105CD00000100240064A02EB9011096800F01F0311
:105CE00001229A401143024B03EB9012116070475E
:105CF0000010024010B5002005490861C8608862A4
:105D000048620120FEF7AAFCFEF79EFA10BD0000D3
:105D1000E800002010B5002005498861486108634B
:105D2000C8620120FEF79AFCFEF798FA10BD000049
:105D3000E800002070B504460B46CD1701EB9575C1
:105D4000AD10A1EB8505AE000F25B540E843CD179A
:105D500001EB9575AD10A1EB8505AD0004FA05F2D8
:105D6000CD1701EB9575AD1035B1012D0ED0022D7B
:105D700016D0032D28D11DE0154B9B680340144D10
:105D8000AB602B469B681343AB601EE0104BDB6897
:105D900003400F4DEB602B46DB681343EB6014E0D0
:105DA0000B4B1B6903400A4D2B612B461B691343A8
:105DB0002B610AE0064B5B690340054D6B612B4686
:105DC0005B6913436B6100E000BF00BF70BD000062
:105DD00000000140002000212E4A126842F4803267
:105DE0002C4B1A6000BF401C2A4A126802F4003192
:105DF00011B9B0F5006FF6D1264A126802F40032EC
:105E000002B97047234A5268224B5A601A465268B8
:105E100042F400525A601A46526842F480625A6054
:105E20001A4652681C4B1A401A4B5A601A46D26ADC
:105E30001A4B1A40174BDA621A465268184B1A432B
:105E4000144B5A601A46D26A42F00102DA621A46CC
:105E5000D26ADA621A46126842F080721A6000BF93
:105E60000C4A126802F00072002AF9D0094A5268FE
:105E700022F00302074B5A601A46526842F00202AF
:105E80005A6000BF034A526802F00802002AF9D0A3
:105E900000BFB6E700100240FFFFC0F7F0FFFF3F72
:105EA0000000110810B5FFF795FF10BD10B512489E
:105EB00000684FF47A71B0FBF1F4601EB0F1807F9E
:105EC00001D301200FE0601E4FF0E02148610F2157
:105ED0004FF0FF30FDF716F900204FF0E021886108
:105EE00007200861002008B100BFFEE70021481E1E
:105EF000FDF708F910BD0000E000002010B50248D1
:105F000000F073FA10BD0000002C014010B50248EB
:105F100000F066FA10BD0000002C014010B50248E8
:105F200000F063FA10BD00000040014010B50248C7
:105F300000F056FA10BD00000040014000B589B0E5
:105F400040F20170FFF7A6FE224800F0E7F90220B8
:105F5000ADF804000020ADF80600ADF8080040F2EE
:105F6000593003900020ADF80A008DF8100001A907
:105F7000184800F03FFA012005900020ADF8180005
:105F8000ADF81A00ADF81C00ADF81E00ADF8200009
:105F900005AA01210F4800F04FF84FF4D6720121F5
:105FA0000C4800F07AF9602201210A4800F048F913
:105FB00000220121074800F083F9064800F036F876
:105FC0000221044800F070FA0221024800F068FA49
:105FD00009B000BD0004004010B540F21150FFF7B9
:105FE00059FE8023002202214FF09040FEF77EFBF5
:105FF0008023032200214FF09040FEF79EFB802279
:1060000001214FF09040FEF735FB10BD10B502485E
:1060100000F0EBF910BD00000004004010B502488C
